{
  "_format": "hh-sol-artifact-1",
  "contractName": "Property",
  "sourceName": "contracts/Property.sol",
  "abi": [
    {
      "inputs": [
        {
          "internalType": "uint256",
          "name": "_cancellationBurnRate",
          "type": "uint256"
        }
      ],
      "stateMutability": "nonpayable",
      "type": "constructor"
    },
    {
      "anonymous": false,
      "inputs": [
        {
          "indexed": true,
          "internalType": "address",
          "name": "account",
          "type": "address"
        },
        {
          "indexed": true,
          "internalType": "address",
          "name": "operator",
          "type": "address"
        },
        {
          "indexed": false,
          "internalType": "bool",
          "name": "approved",
          "type": "bool"
        }
      ],
      "name": "ApprovalForAll",
      "type": "event"
    },
    {
      "anonymous": false,
      "inputs": [
        {
          "indexed": false,
          "internalType": "uint256",
          "name": "value",
          "type": "uint256"
        },
        {
          "indexed": false,
          "internalType": "uint256",
          "name": "fees",
          "type": "uint256"
        },
        {
          "indexed": false,
          "internalType": "uint256",
          "name": "tokenId",
          "type": "uint256"
        }
      ],
      "name": "BuyOrder",
      "type": "event"
    },
    {
      "anonymous": false,
      "inputs": [
        {
          "indexed": false,
          "internalType": "uint256",
          "name": "id",
          "type": "uint256"
        }
      ],
      "name": "MintProperty",
      "type": "event"
    },
    {
      "anonymous": false,
      "inputs": [
        {
          "indexed": false,
          "internalType": "uint256",
          "name": "value",
          "type": "uint256"
        },
        {
          "indexed": false,
          "internalType": "uint256",
          "name": "fees",
          "type": "uint256"
        },
        {
          "indexed": false,
          "internalType": "uint256",
          "name": "tokenId",
          "type": "uint256"
        }
      ],
      "name": "SellOrder",
      "type": "event"
    },
    {
      "anonymous": false,
      "inputs": [
        {
          "indexed": true,
          "internalType": "address",
          "name": "operator",
          "type": "address"
        },
        {
          "indexed": true,
          "internalType": "address",
          "name": "from",
          "type": "address"
        },
        {
          "indexed": true,
          "internalType": "address",
          "name": "to",
          "type": "address"
        },
        {
          "indexed": false,
          "internalType": "uint256[]",
          "name": "ids",
          "type": "uint256[]"
        },
        {
          "indexed": false,
          "internalType": "uint256[]",
          "name": "values",
          "type": "uint256[]"
        }
      ],
      "name": "TransferBatch",
      "type": "event"
    },
    {
      "anonymous": false,
      "inputs": [
        {
          "indexed": true,
          "internalType": "address",
          "name": "operator",
          "type": "address"
        },
        {
          "indexed": true,
          "internalType": "address",
          "name": "from",
          "type": "address"
        },
        {
          "indexed": true,
          "internalType": "address",
          "name": "to",
          "type": "address"
        },
        {
          "indexed": false,
          "internalType": "uint256",
          "name": "id",
          "type": "uint256"
        },
        {
          "indexed": false,
          "internalType": "uint256",
          "name": "value",
          "type": "uint256"
        }
      ],
      "name": "TransferSingle",
      "type": "event"
    },
    {
      "anonymous": false,
      "inputs": [
        {
          "indexed": false,
          "internalType": "string",
          "name": "value",
          "type": "string"
        },
        {
          "indexed": true,
          "internalType": "uint256",
          "name": "id",
          "type": "uint256"
        }
      ],
      "name": "URI",
      "type": "event"
    },
    {
      "inputs": [],
      "name": "ONE_YEAR",
      "outputs": [
        {
          "internalType": "uint256",
          "name": "",
          "type": "uint256"
        }
      ],
      "stateMutability": "view",
      "type": "function"
    },
    {
      "inputs": [
        {
          "internalType": "uint256",
          "name": "_id",
          "type": "uint256"
        },
        {
          "internalType": "uint256",
          "name": "_amount",
          "type": "uint256"
        },
        {
          "internalType": "uint256",
          "name": "_endDate",
          "type": "uint256"
        }
      ],
      "name": "addLiquidity",
      "outputs": [],
      "stateMutability": "payable",
      "type": "function"
    },
    {
      "inputs": [
        {
          "internalType": "address",
          "name": "account",
          "type": "address"
        },
        {
          "internalType": "uint256",
          "name": "id",
          "type": "uint256"
        }
      ],
      "name": "balanceOf",
      "outputs": [
        {
          "internalType": "uint256",
          "name": "",
          "type": "uint256"
        }
      ],
      "stateMutability": "view",
      "type": "function"
    },
    {
      "inputs": [
        {
          "internalType": "address[]",
          "name": "accounts",
          "type": "address[]"
        },
        {
          "internalType": "uint256[]",
          "name": "ids",
          "type": "uint256[]"
        }
      ],
      "name": "balanceOfBatch",
      "outputs": [
        {
          "internalType": "uint256[]",
          "name": "",
          "type": "uint256[]"
        }
      ],
      "stateMutability": "view",
      "type": "function"
    },
    {
      "inputs": [
        {
          "internalType": "address",
          "name": "account",
          "type": "address"
        },
        {
          "internalType": "uint256",
          "name": "id",
          "type": "uint256"
        },
        {
          "internalType": "uint256",
          "name": "value",
          "type": "uint256"
        }
      ],
      "name": "burn",
      "outputs": [],
      "stateMutability": "nonpayable",
      "type": "function"
    },
    {
      "inputs": [
        {
          "internalType": "address",
          "name": "account",
          "type": "address"
        },
        {
          "internalType": "uint256[]",
          "name": "ids",
          "type": "uint256[]"
        },
        {
          "internalType": "uint256[]",
          "name": "values",
          "type": "uint256[]"
        }
      ],
      "name": "burnBatch",
      "outputs": [],
      "stateMutability": "nonpayable",
      "type": "function"
    },
    {
      "inputs": [
        {
          "internalType": "uint256",
          "name": "_id",
          "type": "uint256"
        },
        {
          "internalType": "address",
          "name": "_address",
          "type": "address"
        }
      ],
      "name": "calculateTotalETHLiquidityOfAddress",
      "outputs": [
        {
          "internalType": "uint256",
          "name": "",
          "type": "uint256"
        }
      ],
      "stateMutability": "view",
      "type": "function"
    },
    {
      "inputs": [
        {
          "internalType": "uint256",
          "name": "_id",
          "type": "uint256"
        }
      ],
      "name": "calculateTotalETHLiquidityOfToken",
      "outputs": [
        {
          "internalType": "uint256",
          "name": "",
          "type": "uint256"
        }
      ],
      "stateMutability": "view",
      "type": "function"
    },
    {
      "inputs": [
        {
          "internalType": "uint256",
          "name": "_id",
          "type": "uint256"
        },
        {
          "internalType": "address",
          "name": "_address",
          "type": "address"
        }
      ],
      "name": "calculateTotalTokenLiquidityOfAddress",
      "outputs": [
        {
          "internalType": "uint256",
          "name": "",
          "type": "uint256"
        }
      ],
      "stateMutability": "view",
      "type": "function"
    },
    {
      "inputs": [
        {
          "internalType": "uint256",
          "name": "_id",
          "type": "uint256"
        }
      ],
      "name": "calculateTotalTokenLiquidityOfToken",
      "outputs": [
        {
          "internalType": "uint256",
          "name": "",
          "type": "uint256"
        }
      ],
      "stateMutability": "view",
      "type": "function"
    },
    {
      "inputs": [],
      "name": "cancellationBurnRate_",
      "outputs": [
        {
          "internalType": "uint256",
          "name": "",
          "type": "uint256"
        }
      ],
      "stateMutability": "view",
      "type": "function"
    },
    {
      "inputs": [
        {
          "internalType": "address",
          "name": "_address",
          "type": "address"
        },
        {
          "internalType": "uint256",
          "name": "_id",
          "type": "uint256"
        }
      ],
      "name": "findProvidersFromAddress",
      "outputs": [
        {
          "components": [
            {
              "internalType": "uint256",
              "name": "nativeProvided",
              "type": "uint256"
            },
            {
              "internalType": "uint256",
              "name": "tokenProvided",
              "type": "uint256"
            },
            {
              "internalType": "uint256",
              "name": "endDate",
              "type": "uint256"
            },
            {
              "internalType": "address",
              "name": "beneficiary",
              "type": "address"
            }
          ],
          "internalType": "struct Property.Provider[]",
          "name": "",
          "type": "tuple[]"
        }
      ],
      "stateMutability": "view",
      "type": "function"
    },
    {
      "inputs": [
        {
          "internalType": "uint256",
          "name": "_id",
          "type": "uint256"
        },
        {
          "internalType": "address",
          "name": "_address",
          "type": "address"
        }
      ],
      "name": "getLiqudity",
      "outputs": [
        {
          "components": [
            {
              "internalType": "uint256",
              "name": "nativeProvided",
              "type": "uint256"
            },
            {
              "internalType": "uint256",
              "name": "tokenProvided",
              "type": "uint256"
            },
            {
              "internalType": "uint256",
              "name": "endDate",
              "type": "uint256"
            },
            {
              "internalType": "address",
              "name": "beneficiary",
              "type": "address"
            }
          ],
          "internalType": "struct Property.Provider[]",
          "name": "",
          "type": "tuple[]"
        }
      ],
      "stateMutability": "view",
      "type": "function"
    },
    {
      "inputs": [
        {
          "internalType": "uint256",
          "name": "_id",
          "type": "uint256"
        }
      ],
      "name": "getMintTimestamp",
      "outputs": [
        {
          "internalType": "uint256",
          "name": "",
          "type": "uint256"
        }
      ],
      "stateMutability": "view",
      "type": "function"
    },
    {
      "inputs": [
        {
          "internalType": "uint256",
          "name": "_id",
          "type": "uint256"
        },
        {
          "internalType": "uint256",
          "name": "_shares",
          "type": "uint256"
        }
      ],
      "name": "getNativeFee",
      "outputs": [
        {
          "internalType": "uint256",
          "name": "",
          "type": "uint256"
        }
      ],
      "stateMutability": "view",
      "type": "function"
    },
    {
      "inputs": [
        {
          "internalType": "uint256",
          "name": "_id",
          "type": "uint256"
        }
      ],
      "name": "getSharePriceFromNative",
      "outputs": [
        {
          "internalType": "uint256",
          "name": "",
          "type": "uint256"
        }
      ],
      "stateMutability": "view",
      "type": "function"
    },
    {
      "inputs": [
        {
          "internalType": "uint256",
          "name": "_id",
          "type": "uint256"
        }
      ],
      "name": "getSharePriceFromToken",
      "outputs": [
        {
          "internalType": "int128",
          "name": "",
          "type": "int128"
        }
      ],
      "stateMutability": "view",
      "type": "function"
    },
    {
      "inputs": [
        {
          "internalType": "uint256",
          "name": "_id",
          "type": "uint256"
        },
        {
          "internalType": "uint256",
          "name": "_shares",
          "type": "uint256"
        }
      ],
      "name": "getTokenFee",
      "outputs": [
        {
          "internalType": "uint256",
          "name": "",
          "type": "uint256"
        }
      ],
      "stateMutability": "view",
      "type": "function"
    },
    {
      "inputs": [
        {
          "internalType": "uint256",
          "name": "_id",
          "type": "uint256"
        }
      ],
      "name": "getTokenOwner",
      "outputs": [
        {
          "internalType": "address payable",
          "name": "",
          "type": "address"
        }
      ],
      "stateMutability": "view",
      "type": "function"
    },
    {
      "inputs": [],
      "name": "id_",
      "outputs": [
        {
          "internalType": "uint256",
          "name": "_value",
          "type": "uint256"
        }
      ],
      "stateMutability": "view",
      "type": "function"
    },
    {
      "inputs": [
        {
          "internalType": "uint256",
          "name": "_fee",
          "type": "uint256"
        },
        {
          "internalType": "uint256",
          "name": "_id",
          "type": "uint256"
        },
        {
          "internalType": "uint256",
          "name": "_amount",
          "type": "uint256"
        }
      ],
      "name": "initializePool",
      "outputs": [],
      "stateMutability": "payable",
      "type": "function"
    },
    {
      "inputs": [
        {
          "internalType": "address",
          "name": "account",
          "type": "address"
        },
        {
          "internalType": "address",
          "name": "operator",
          "type": "address"
        }
      ],
      "name": "isApprovedForAll",
      "outputs": [
        {
          "internalType": "bool",
          "name": "",
          "type": "bool"
        }
      ],
      "stateMutability": "view",
      "type": "function"
    },
    {
      "inputs": [
        {
          "internalType": "uint256",
          "name": "",
          "type": "uint256"
        }
      ],
      "name": "liqudity_",
      "outputs": [
        {
          "internalType": "uint256",
          "name": "native",
          "type": "uint256"
        },
        {
          "internalType": "uint256",
          "name": "token",
          "type": "uint256"
        },
        {
          "internalType": "uint256",
          "name": "fee",
          "type": "uint256"
        }
      ],
      "stateMutability": "view",
      "type": "function"
    },
    {
      "inputs": [
        {
          "internalType": "uint256",
          "name": "_shares",
          "type": "uint256"
        },
        {
          "internalType": "string",
          "name": "_uri",
          "type": "string"
        }
      ],
      "name": "mintProperty",
      "outputs": [],
      "stateMutability": "nonpayable",
      "type": "function"
    },
    {
      "inputs": [
        {
          "internalType": "uint256",
          "name": "",
          "type": "uint256"
        }
      ],
      "name": "mintTimes_",
      "outputs": [
        {
          "internalType": "uint256",
          "name": "",
          "type": "uint256"
        }
      ],
      "stateMutability": "view",
      "type": "function"
    },
    {
      "inputs": [],
      "name": "nativeFees_",
      "outputs": [
        {
          "internalType": "uint256",
          "name": "",
          "type": "uint256"
        }
      ],
      "stateMutability": "view",
      "type": "function"
    },
    {
      "inputs": [
        {
          "internalType": "address",
          "name": "",
          "type": "address"
        },
        {
          "internalType": "address",
          "name": "",
          "type": "address"
        },
        {
          "internalType": "uint256[]",
          "name": "",
          "type": "uint256[]"
        },
        {
          "internalType": "uint256[]",
          "name": "",
          "type": "uint256[]"
        },
        {
          "internalType": "bytes",
          "name": "",
          "type": "bytes"
        }
      ],
      "name": "onERC1155BatchReceived",
      "outputs": [
        {
          "internalType": "bytes4",
          "name": "",
          "type": "bytes4"
        }
      ],
      "stateMutability": "nonpayable",
      "type": "function"
    },
    {
      "inputs": [
        {
          "internalType": "address",
          "name": "",
          "type": "address"
        },
        {
          "internalType": "address",
          "name": "",
          "type": "address"
        },
        {
          "internalType": "uint256",
          "name": "",
          "type": "uint256"
        },
        {
          "internalType": "uint256",
          "name": "",
          "type": "uint256"
        },
        {
          "internalType": "bytes",
          "name": "",
          "type": "bytes"
        }
      ],
      "name": "onERC1155Received",
      "outputs": [
        {
          "internalType": "bytes4",
          "name": "",
          "type": "bytes4"
        }
      ],
      "stateMutability": "nonpayable",
      "type": "function"
    },
    {
      "inputs": [],
      "name": "providerCount_",
      "outputs": [
        {
          "internalType": "uint256",
          "name": "",
          "type": "uint256"
        }
      ],
      "stateMutability": "view",
      "type": "function"
    },
    {
      "inputs": [
        {
          "internalType": "uint256",
          "name": "",
          "type": "uint256"
        },
        {
          "internalType": "address",
          "name": "",
          "type": "address"
        },
        {
          "internalType": "uint256",
          "name": "",
          "type": "uint256"
        }
      ],
      "name": "providers_",
      "outputs": [
        {
          "internalType": "uint256",
          "name": "nativeProvided",
          "type": "uint256"
        },
        {
          "internalType": "uint256",
          "name": "tokenProvided",
          "type": "uint256"
        },
        {
          "internalType": "uint256",
          "name": "endDate",
          "type": "uint256"
        },
        {
          "internalType": "address",
          "name": "beneficiary",
          "type": "address"
        }
      ],
      "stateMutability": "view",
      "type": "function"
    },
    {
      "inputs": [
        {
          "internalType": "uint256",
          "name": "_shares",
          "type": "uint256"
        },
        {
          "internalType": "uint256",
          "name": "_id",
          "type": "uint256"
        }
      ],
      "name": "purchaseTokens",
      "outputs": [],
      "stateMutability": "payable",
      "type": "function"
    },
    {
      "inputs": [
        {
          "internalType": "uint256",
          "name": "_id",
          "type": "uint256"
        },
        {
          "internalType": "uint256",
          "name": "_tokenAmount",
          "type": "uint256"
        },
        {
          "internalType": "uint256",
          "name": "_ethAmount",
          "type": "uint256"
        }
      ],
      "name": "removeLiquidity",
      "outputs": [],
      "stateMutability": "nonpayable",
      "type": "function"
    },
    {
      "inputs": [
        {
          "internalType": "address",
          "name": "from",
          "type": "address"
        },
        {
          "internalType": "address",
          "name": "to",
          "type": "address"
        },
        {
          "internalType": "uint256[]",
          "name": "ids",
          "type": "uint256[]"
        },
        {
          "internalType": "uint256[]",
          "name": "amounts",
          "type": "uint256[]"
        },
        {
          "internalType": "bytes",
          "name": "data",
          "type": "bytes"
        }
      ],
      "name": "safeBatchTransferFrom",
      "outputs": [],
      "stateMutability": "nonpayable",
      "type": "function"
    },
    {
      "inputs": [
        {
          "internalType": "address",
          "name": "from",
          "type": "address"
        },
        {
          "internalType": "address",
          "name": "to",
          "type": "address"
        },
        {
          "internalType": "uint256",
          "name": "id",
          "type": "uint256"
        },
        {
          "internalType": "uint256",
          "name": "amount",
          "type": "uint256"
        },
        {
          "internalType": "bytes",
          "name": "data",
          "type": "bytes"
        }
      ],
      "name": "safeTransferFrom",
      "outputs": [],
      "stateMutability": "nonpayable",
      "type": "function"
    },
    {
      "inputs": [
        {
          "internalType": "uint256",
          "name": "_shares",
          "type": "uint256"
        },
        {
          "internalType": "uint256",
          "name": "_id",
          "type": "uint256"
        }
      ],
      "name": "sellTokens",
      "outputs": [],
      "stateMutability": "nonpayable",
      "type": "function"
    },
    {
      "inputs": [
        {
          "internalType": "address",
          "name": "operator",
          "type": "address"
        },
        {
          "internalType": "bool",
          "name": "approved",
          "type": "bool"
        }
      ],
      "name": "setApprovalForAll",
      "outputs": [],
      "stateMutability": "nonpayable",
      "type": "function"
    },
    {
      "inputs": [
        {
          "internalType": "uint256",
          "name": "_id",
          "type": "uint256"
        },
        {
          "internalType": "string",
          "name": "_uri",
          "type": "string"
        }
      ],
      "name": "setTokenURI",
      "outputs": [],
      "stateMutability": "nonpayable",
      "type": "function"
    },
    {
      "inputs": [
        {
          "internalType": "bytes4",
          "name": "interfaceId",
          "type": "bytes4"
        }
      ],
      "name": "supportsInterface",
      "outputs": [
        {
          "internalType": "bool",
          "name": "",
          "type": "bool"
        }
      ],
      "stateMutability": "view",
      "type": "function"
    },
    {
      "inputs": [
        {
          "internalType": "uint256",
          "name": "",
          "type": "uint256"
        }
      ],
      "name": "tokenDeployers_",
      "outputs": [
        {
          "internalType": "address",
          "name": "",
          "type": "address"
        }
      ],
      "stateMutability": "view",
      "type": "function"
    },
    {
      "inputs": [],
      "name": "tokenFees_",
      "outputs": [
        {
          "internalType": "uint256",
          "name": "",
          "type": "uint256"
        }
      ],
      "stateMutability": "view",
      "type": "function"
    },
    {
      "inputs": [
        {
          "internalType": "uint256",
          "name": "_id",
          "type": "uint256"
        }
      ],
      "name": "totalSupply",
      "outputs": [
        {
          "internalType": "uint256",
          "name": "",
          "type": "uint256"
        }
      ],
      "stateMutability": "view",
      "type": "function"
    },
    {
      "inputs": [
        {
          "internalType": "uint256",
          "name": "",
          "type": "uint256"
        }
      ],
      "name": "totalSupply_",
      "outputs": [
        {
          "internalType": "uint256",
          "name": "",
          "type": "uint256"
        }
      ],
      "stateMutability": "view",
      "type": "function"
    },
    {
      "inputs": [
        {
          "internalType": "uint256",
          "name": "_tokenID",
          "type": "uint256"
        }
      ],
      "name": "uri",
      "outputs": [
        {
          "internalType": "string",
          "name": "",
          "type": "string"
        }
      ],
      "stateMutability": "view",
      "type": "function"
    },
    {
      "inputs": [
        {
          "internalType": "uint256",
          "name": "_id",
          "type": "uint256"
        }
      ],
      "name": "withdrawRewards",
      "outputs": [],
      "stateMutability": "nonpayable",
      "type": "function"
    },
    {
      "stateMutability": "payable",
      "type": "receive"
    }
  ],
  "bytecode": "0x60806040523480156200001157600080fd5b5060405162005f0638038062005f06833981810160405281019062000037919062000199565b6040518060400160405280600b81526020017f697066733a2f2f7b69647d0000000000000000000000000000000000000000008152506200007e816200008d60201b60201c565b5080600b819055505062000230565b8060029080519060200190620000a5929190620000a9565b5050565b828054620000b790620001fa565b90600052602060002090601f016020900481019282620000db576000855562000127565b82601f10620000f657805160ff191683800117855562000127565b8280016001018555821562000127579182015b828111156200012657825182559160200191906001019062000109565b5b5090506200013691906200013a565b5090565b5b80821115620001555760008160009055506001016200013b565b5090565b600080fd5b6000819050919050565b62000173816200015e565b81146200017f57600080fd5b50565b600081519050620001938162000168565b92915050565b600060208284031215620001b257620001b162000159565b5b6000620001c28482850162000182565b91505092915050565b7f4e487b7100000000000000000000000000000000000000000000000000000000600052602260045260246000fd5b600060028204905060018216806200021357607f821691505b602082108114156200022a5762000229620001cb565b5b50919050565b615cc680620002406000396000f3fe60806040526004361061026a5760003560e01c80636c36092311610144578063a5cd761f116100b6578063d8fd5f451161007a578063d8fd5f4514610a2b578063e985e9c514610a6b578063ed9772b614610aa8578063f23a6e6114610ad1578063f242432a14610b0e578063f5298aca14610b3757610271565b8063a5cd761f146108f8578063bc197c8114610935578063bd85b03914610972578063c3ddb532146109af578063cfc7d1a3146109ec57610271565b80638c8d7013116101085780638c8d7013146107c45780638dcf5da2146108015780639342c8f41461082c578063a22aa44514610855578063a22cb46514610892578063a2c615ca146108bb57610271565b80636c360923146106ec5780636f21983114610729578063857620e1146107545780638a1bf75a1461077d5780638bf0af3e146107a857610271565b80632a1850d2116101dd5780634b77cf19116101a15780634b77cf19146105c55780634e1273f4146105f05780635cea59501461062d5780635d79b9c91461066a578063656898b7146106a75780636b20c454146106c357610271565b80632a1850d2146104c95780632eb2c2d6146105065780633bd927ba1461052f5780634048a4061461056c578063422f1043146105a957610271565b80630e89341c1161022f5780630e89341c14610381578063162094c4146103be57806316d3bfbb146103e75780631c70721b146104125780631ebb51a11461044f578063278700911461048c57610271565b8062fdd58e1461027657806301ffc9a7146102b357806307903785146102f057806307e1a9cf1461031b5780630e665d971461035857610271565b3661027157005b600080fd5b34801561028257600080fd5b5061029d60048036038101906102989190613db3565b610b60565b6040516102aa9190613e02565b60405180910390f35b3480156102bf57600080fd5b506102da60048036038101906102d59190613e75565b610c29565b6040516102e79190613ebd565b60405180910390f35b3480156102fc57600080fd5b50610305610c3b565b6040516103129190613e02565b60405180910390f35b34801561032757600080fd5b50610342600480360381019061033d9190613ed8565b610c41565b60405161034f9190613e02565b60405180910390f35b34801561036457600080fd5b5061037f600480360381019061037a919061404b565b610c59565b005b34801561038d57600080fd5b506103a860048036038101906103a39190613ed8565b610d72565b6040516103b5919061412f565b60405180910390f35b3480156103ca57600080fd5b506103e560048036038101906103e0919061404b565b610e17565b005b3480156103f357600080fd5b506103fc610ebf565b6040516104099190613e02565b60405180910390f35b34801561041e57600080fd5b5061043960048036038101906104349190614151565b610ec7565b6040516104469190613e02565b60405180910390f35b34801561045b57600080fd5b5061047660048036038101906104719190613ed8565b610f2c565b60405161048391906141ad565b60405180910390f35b34801561049857600080fd5b506104b360048036038101906104ae9190613db3565b610f83565b6040516104c091906142ea565b60405180910390f35b3480156104d557600080fd5b506104f060048036038101906104eb9190613ed8565b6110a7565b6040516104fd9190613e02565b60405180910390f35b34801561051257600080fd5b5061052d60048036038101906105289190614475565b6110e8565b005b34801561053b57600080fd5b5061055660048036038101906105519190614151565b611189565b6040516105639190613e02565b60405180910390f35b34801561057857600080fd5b50610593600480360381019061058e9190613ed8565b6111d5565b6040516105a09190613e02565b60405180910390f35b6105c360048036038101906105be9190614544565b6111f5565b005b3480156105d157600080fd5b506105da61127c565b6040516105e79190613e02565b60405180910390f35b3480156105fc57600080fd5b506106176004803603810190610612919061465a565b611282565b6040516106249190614781565b60405180910390f35b34801561063957600080fd5b50610654600480360381019061064f9190613ed8565b61139b565b6040516106619190613e02565b60405180910390f35b34801561067657600080fd5b50610691600480360381019061068c91906147a3565b6113b3565b60405161069e9190613e02565b60405180910390f35b6106c160048036038101906106bc9190614544565b61141a565b005b3480156106cf57600080fd5b506106ea60048036038101906106e591906147e3565b6114b9565b005b3480156106f857600080fd5b50610713600480360381019061070e9190613ed8565b611556565b6040516107209190613e02565b60405180910390f35b34801561073557600080fd5b5061073e611573565b60405161074b9190613e02565b60405180910390f35b34801561076057600080fd5b5061077b60048036038101906107769190614544565b61157f565b005b34801561078957600080fd5b50610792611780565b60405161079f9190613e02565b60405180910390f35b6107c260048036038101906107bd9190614151565b611786565b005b3480156107d057600080fd5b506107eb60048036038101906107e691906147a3565b611983565b6040516107f89190613e02565b60405180910390f35b34801561080d57600080fd5b506108166119ea565b6040516108239190613e02565b60405180910390f35b34801561083857600080fd5b50610853600480360381019061084e9190613ed8565b6119f0565b005b34801561086157600080fd5b5061087c60048036038101906108779190613ed8565b611a7a565b6040516108899190613e02565b60405180910390f35b34801561089e57600080fd5b506108b960048036038101906108b4919061489a565b611a9a565b005b3480156108c757600080fd5b506108e260048036038101906108dd9190613ed8565b611ab0565b6040516108ef91906148e9565b60405180910390f35b34801561090457600080fd5b5061091f600480360381019061091a9190613ed8565b611ae3565b60405161092c9190614925565b60405180910390f35b34801561094157600080fd5b5061095c60048036038101906109579190614475565b611b20565b604051610969919061494f565b60405180910390f35b34801561097e57600080fd5b5061099960048036038101906109949190613ed8565b611b35565b6040516109a69190613e02565b60405180910390f35b3480156109bb57600080fd5b506109d660048036038101906109d191906147a3565b611b52565b6040516109e391906142ea565b60405180910390f35b3480156109f857600080fd5b50610a136004803603810190610a0e9190613ed8565b611c76565b604051610a229392919061496a565b60405180910390f35b348015610a3757600080fd5b50610a526004803603810190610a4d91906149a1565b611ca0565b604051610a6294939291906149f4565b60405180910390f35b348015610a7757600080fd5b50610a926004803603810190610a8d9190614a39565b611d1a565b604051610a9f9190613ebd565b60405180910390f35b348015610ab457600080fd5b50610acf6004803603810190610aca9190614151565b611dae565b005b348015610add57600080fd5b50610af86004803603810190610af39190614a79565b611f70565b604051610b05919061494f565b60405180910390f35b348015610b1a57600080fd5b50610b356004803603810190610b309190614a79565b611f85565b005b348015610b4357600080fd5b50610b5e6004803603810190610b599190614b10565b612063565b005b60008073ffffffffffffffffffffffffffffffffffffffff168373ffffffffffffffffffffffffffffffffffffffff161415610bd1576040517f08c379a0000000000000000000000000000000000000000000000000000000008152600401610bc890614bd5565b60405180910390fd5b60008083815260200190815260200160002060008473ffffffffffffffffffffffffffffffffffffffff1673ffffffffffffffffffffffffffffffffffffffff16815260200190815260200160002054905092915050565b6000610c3482612136565b9050919050565b60095481565b600c6020528060005260406000206000915090505481565b6000610c65600d612218565b9050610c71600d612226565b610c8c3382856040518060200160405280600081525061223c565b336003600083815260200190815260200160002060006101000a81548173ffffffffffffffffffffffffffffffffffffffff021916908373ffffffffffffffffffffffffffffffffffffffff16021790555081600560008381526020019081526020016000209080519060200190610d05929190613c68565b5042600460008381526020019081526020016000208190555082600c6000838152602001908152602001600020819055507f7ca4fe143786fe32ae51282d048ad4214074343b478b41045b265828711bce0f81604051610d659190613e02565b60405180910390a1505050565b6060600560008381526020019081526020016000208054610d9290614c24565b80601f0160208091040260200160405190810160405280929190818152602001828054610dbe90614c24565b8015610e0b5780601f10610de057610100808354040283529160200191610e0b565b820191906000526020600020905b815481529060010190602001808311610dee57829003601f168201915b50505050509050919050565b6000610e2283611ae3565b90508073ffffffffffffffffffffffffffffffffffffffff163373ffffffffffffffffffffffffffffffffffffffff1614610e92576040517f08c379a0000000000000000000000000000000000000000000000000000000008152600401610e8990614ca2565b60405180910390fd5b81600560008581526020019081526020016000209080519060200190610eb9929190613c68565b50505050565b6301e1914081565b600080610ee4610ed6846123d2565b610edf86610f2c565b6123f5565b9050610f19610f14610f0c836006600089815260200190815260200160002060020154612460565b6103e861251b565b612583565b67ffffffffffffffff1691505092915050565b600080610f78670de0b6b3a76400006006600086815260200190815260200160002060010154610f5c9190614cf1565b600660008681526020019081526020016000206000015461251b565b905080915050919050565b60606007600083815260200190815260200160002060008473ffffffffffffffffffffffffffffffffffffffff1673ffffffffffffffffffffffffffffffffffffffff168152602001908152602001600020805480602002602001604051908101604052809291908181526020016000905b8282101561109b57838290600052602060002090600402016040518060800160405290816000820154815260200160018201548152602001600282015481526020016003820160009054906101000a900473ffffffffffffffffffffffffffffffffffffffff1673ffffffffffffffffffffffffffffffffffffffff1673ffffffffffffffffffffffffffffffffffffffff168152505081526020019060010190610ff5565b50505050905092915050565b6000600660008381526020019081526020016000206001015460066000848152602001908152602001600020600001546110e19190614d7a565b9050919050565b6110f06125a4565b73ffffffffffffffffffffffffffffffffffffffff168573ffffffffffffffffffffffffffffffffffffffff1614806111365750611135856111306125a4565b611d1a565b5b611175576040517f08c379a000000000000000000000000000000000000000000000000000000000815260040161116c90614e1d565b60405180910390fd5b61118285858585856125ac565b5050505050565b60006103e860066000858152602001908152602001600020600201546111ae856110a7565b846111b99190614cf1565b6111c39190614cf1565b6111cd9190614d7a565b905092915050565b600060066000838152602001908152602001600020600101549050919050565b600060066000858152602001908152602001600020600101541161124e576040517f08c379a000000000000000000000000000000000000000000000000000000000815260040161124590614e89565b60405180910390fd5b61126a33308585604051806020016040528060008152506128c0565b6112778383348433612b42565b505050565b600a5481565b606081518351146112c8576040517f08c379a00000000000000000000000000000000000000000000000000000000081526004016112bf90614f1b565b60405180910390fd5b6000835167ffffffffffffffff8111156112e5576112e4613f20565b5b6040519080825280602002602001820160405280156113135781602001602082028036833780820191505090505b50905060005b84518110156113905761136085828151811061133857611337614f3b565b5b602002602001015185838151811061135357611352614f3b565b5b6020026020010151610b60565b82828151811061137357611372614f3b565b5b6020026020010181815250508061138990614f6a565b9050611319565b508091505092915050565b60046020528060005260406000206000915090505481565b6000806113c08484611b52565b90506000805b825181101561140e578281815181106113e2576113e1614f3b565b5b602002602001015160000151826113f99190614fb3565b9150808061140690614f6a565b9150506113c6565b50809250505092915050565b61143633308484604051806020016040528060008152506128c0565b6040518060600160405280600081526020016000815260200184815250600660008481526020019081526020016000206000820151816000015560208201518160010155604082015181600201559050506114b48282347fffffffffffffffffffffffffffffffffffffffffffffffffffffffffffffffff33612b42565b505050565b6114c16125a4565b73ffffffffffffffffffffffffffffffffffffffff168373ffffffffffffffffffffffffffffffffffffffff1614806115075750611506836115016125a4565b611d1a565b5b611546576040517f08c379a000000000000000000000000000000000000000000000000000000000815260040161153d9061507b565b60405180910390fd5b611551838383612ced565b505050565b600060046000838152602001908152602001600020549050919050565b600d8060000154905081565b60006006600085815260200190815260200160002060010154116115d8576040517f08c379a00000000000000000000000000000000000000000000000000000000081526004016115cf90614e89565b60405180910390fd5b60006115e384611ae3565b90508073ffffffffffffffffffffffffffffffffffffffff163373ffffffffffffffffffffffffffffffffffffffff161415611673576301e1914061162785611556565b6116319190614fb3565b4211611672576040517f08c379a00000000000000000000000000000000000000000000000000000000081526004016116699061510d565b60405180910390fd5b5b600061167f8533611983565b9050600061168d86336113b3565b9050848210156116d2576040517f08c379a00000000000000000000000000000000000000000000000000000000081526004016116c990615179565b60405180910390fd5b83811015611715576040517f08c379a000000000000000000000000000000000000000000000000000000000815260040161170c906151e5565b60405180910390fd5b3373ffffffffffffffffffffffffffffffffffffffff166108fc859081150290604051600060405180830381858888f1935050505015801561175b573d6000803e3d6000fd5b5061177830338888604051806020016040528060008152506128c0565b505050505050565b60085481565b3482611791836110a7565b61179b9190614cf1565b146117db576040517f08c379a00000000000000000000000000000000000000000000000000000000081526004016117d290615251565b60405180910390fd5b8160066000838152602001908152602001600020600101541015611834576040517f08c379a000000000000000000000000000000000000000000000000000000000815260040161182b906152bd565b60405180910390fd5b346006600083815260200190815260200160002060000154101561188d576040517f08c379a000000000000000000000000000000000000000000000000000000000815260040161188490615329565b60405180910390fd5b60006118998284611189565b90507f9ba5bf333d7978999c135b71e991622c4fc536d765ac8cfdb8f42e72e075bbdd8382846040516118ce9392919061496a565b60405180910390a180600a546118e49190614fb3565b600a8190555061190630338486604051806020016040528060008152506128c0565b8260066000848152602001908152602001600020600101546119289190615349565b60066000848152602001908152602001600020600101819055503460066000848152602001908152602001600020600001546119649190614fb3565b6006600084815260200190815260200160002060000181905550505050565b6000806119908484611b52565b90506000805b82518110156119de578281815181106119b2576119b1614f3b565b5b602002602001015160200151826119c99190614fb3565b915080806119d690614f6a565b915050611996565b50809250505092915050565b600b5481565b60006119fb82611ae3565b90508073ffffffffffffffffffffffffffffffffffffffff163373ffffffffffffffffffffffffffffffffffffffff161415611a6c576040517f08c379a0000000000000000000000000000000000000000000000000000000008152600401611a63906153c9565b60405180910390fd5b611a768233612f9e565b5050565b600060066000838152602001908152602001600020600001549050919050565b611aac611aa56125a4565b83836131d8565b5050565b60036020528060005260406000206000915054906101000a900473ffffffffffffffffffffffffffffffffffffffff1681565b60006003600083815260200190815260200160002060009054906101000a900473ffffffffffffffffffffffffffffffffffffffff169050919050565b600063bc197c8160e01b905095945050505050565b6000600c6000838152602001908152602001600020549050919050565b60606007600084815260200190815260200160002060008373ffffffffffffffffffffffffffffffffffffffff1673ffffffffffffffffffffffffffffffffffffffff168152602001908152602001600020805480602002602001604051908101604052809291908181526020016000905b82821015611c6a57838290600052602060002090600402016040518060800160405290816000820154815260200160018201548152602001600282015481526020016003820160009054906101000a900473ffffffffffffffffffffffffffffffffffffffff1673ffffffffffffffffffffffffffffffffffffffff1673ffffffffffffffffffffffffffffffffffffffff168152505081526020019060010190611bc4565b50505050905092915050565b60066020528060005260406000206000915090508060000154908060010154908060020154905083565b60076020528260005260406000206020528160005260406000208181548110611cc857600080fd5b906000526020600020906004020160009250925050508060000154908060010154908060020154908060030160009054906101000a900473ffffffffffffffffffffffffffffffffffffffff16905084565b6000600160008473ffffffffffffffffffffffffffffffffffffffff1673ffffffffffffffffffffffffffffffffffffffff16815260200190815260200160002060008373ffffffffffffffffffffffffffffffffffffffff1673ffffffffffffffffffffffffffffffffffffffff16815260200190815260200160002060009054906101000a900460ff16905092915050565b81611db8826110a7565b611dc29190614cf1565b60066000838152602001908152602001600020600001541015611e1a576040517f08c379a0000000000000000000000000000000000000000000000000000000008152600401611e1190615329565b60405180910390fd5b6000611e268284610ec7565b905080600954611e369190614fb3565b600981905550611e5833308486604051806020016040528060008152506128c0565b6000611e63836110a7565b84611e6e9190614cf1565b9050836006600085815260200190815260200160002060010154611e929190614fb3565b6006600085815260200190815260200160002060010181905550806006600085815260200190815260200160002060000154611ece9190615349565b60066000858152602001908152602001600020600001819055507ffd978137d0146b0a64c94842bc7b1e1c1db341599b3ea2e2f6f32e0f349af80c818385604051611f1b9392919061496a565b60405180910390a13373ffffffffffffffffffffffffffffffffffffffff166108fc829081150290604051600060405180830381858888f19350505050158015611f69573d6000803e3d6000fd5b5050505050565b600063f23a6e6160e01b905095945050505050565b611f8d6125a4565b73ffffffffffffffffffffffffffffffffffffffff168573ffffffffffffffffffffffffffffffffffffffff161480611fd35750611fd285611fcd6125a4565b611d1a565b5b8061201057503073ffffffffffffffffffffffffffffffffffffffff16611ff86125a4565b73ffffffffffffffffffffffffffffffffffffffff16145b61204f576040517f08c379a00000000000000000000000000000000000000000000000000000000081526004016120469061507b565b60405180910390fd5b61205c85858585856128c0565b5050505050565b61206b6125a4565b73ffffffffffffffffffffffffffffffffffffffff168373ffffffffffffffffffffffffffffffffffffffff1614806120b157506120b0836120ab6125a4565b611d1a565b5b806120e757503073ffffffffffffffffffffffffffffffffffffffff168373ffffffffffffffffffffffffffffffffffffffff16145b612126576040517f08c379a000000000000000000000000000000000000000000000000000000000815260040161211d9061507b565b60405180910390fd5b612131838383613345565b505050565b60007fd9b67a26000000000000000000000000000000000000000000000000000000007bffffffffffffffffffffffffffffffffffffffffffffffffffffffff1916827bffffffffffffffffffffffffffffffffffffffffffffffffffffffff1916148061220157507f0e89341c000000000000000000000000000000000000000000000000000000007bffffffffffffffffffffffffffffffffffffffffffffffffffffffff1916827bffffffffffffffffffffffffffffffffffffffffffffffffffffffff1916145b80612211575061221082613562565b5b9050919050565b600081600001549050919050565b6001816000016000828254019250508190555050565b600073ffffffffffffffffffffffffffffffffffffffff168473ffffffffffffffffffffffffffffffffffffffff1614156122ac576040517f08c379a00000000000000000000000000000000000000000000000000000000081526004016122a39061545b565b60405180910390fd5b60006122b66125a4565b90506122d7816000876122c8886135dc565b6122d1886135dc565b87613656565b8260008086815260200190815260200160002060008773ffffffffffffffffffffffffffffffffffffffff1673ffffffffffffffffffffffffffffffffffffffff16815260200190815260200160002060008282546123369190614fb3565b925050819055508473ffffffffffffffffffffffffffffffffffffffff16600073ffffffffffffffffffffffffffffffffffffffff168273ffffffffffffffffffffffffffffffffffffffff167fc3d58168c5ae7397731d063d5bbf3d657854427343f4c083240f7aacaa2d0f6287876040516123b492919061547b565b60405180910390a46123cb8160008787878761365e565b5050505050565b6000677fffffffffffffff8211156123e957600080fd5b604082901b9050919050565b600080604083600f0b85600f0b02901d90507fffffffffffffffffffffffffffffffff80000000000000000000000000000000600f0b811215801561244d57506f7fffffffffffffffffffffffffffffff600f0b8113155b61245657600080fd5b8091505092915050565b6000808214156124735760009050612515565b600083600f0b121561248457600080fd5b600060406fffffffffffffffffffffffffffffffff841685600f0b02901c90506000608084901c85600f0b02905077ffffffffffffffffffffffffffffffffffffffffffffffff8111156124d757600080fd5b604081901b9050817fffffffffffffffffffffffffffffffffffffffffffffffffffffffffffffffff0381111561250d57600080fd5b818101925050505b92915050565b60008082141561252a57600080fd5b60006125368484613836565b90506f7fffffffffffffffffffffffffffffff6fffffffffffffffffffffffffffffffff16816fffffffffffffffffffffffffffffffff16111561257957600080fd5b8091505092915050565b60008082600f0b121561259557600080fd5b604082600f0b901d9050919050565b600033905090565b81518351146125f0576040517f08c379a00000000000000000000000000000000000000000000000000000000081526004016125e790615516565b60405180910390fd5b600073ffffffffffffffffffffffffffffffffffffffff168473ffffffffffffffffffffffffffffffffffffffff161415612660576040517f08c379a0000000000000000000000000000000000000000000000000000000008152600401612657906155a8565b60405180910390fd5b600061266a6125a4565b905061267a818787878787613656565b60005b845181101561282b57600085828151811061269b5761269a614f3b565b5b6020026020010151905060008583815181106126ba576126b9614f3b565b5b60200260200101519050600080600084815260200190815260200160002060008b73ffffffffffffffffffffffffffffffffffffffff1673ffffffffffffffffffffffffffffffffffffffff1681526020019081526020016000205490508181101561275b576040517f08c379a00000000000000000000000000000000000000000000000000000000081526004016127529061563a565b60405180910390fd5b81810360008085815260200190815260200160002060008c73ffffffffffffffffffffffffffffffffffffffff1673ffffffffffffffffffffffffffffffffffffffff168152602001908152602001600020819055508160008085815260200190815260200160002060008b73ffffffffffffffffffffffffffffffffffffffff1673ffffffffffffffffffffffffffffffffffffffff16815260200190815260200160002060008282546128109190614fb3565b925050819055505050508061282490614f6a565b905061267d565b508473ffffffffffffffffffffffffffffffffffffffff168673ffffffffffffffffffffffffffffffffffffffff168273ffffffffffffffffffffffffffffffffffffffff167f4a39dc06d4c0dbc64b70af90fd698a233a518aa5d07e595d983b8c0526c8f7fb87876040516128a292919061565a565b60405180910390a46128b8818787878787613a13565b505050505050565b600073ffffffffffffffffffffffffffffffffffffffff168473ffffffffffffffffffffffffffffffffffffffff161415612930576040517f08c379a0000000000000000000000000000000000000000000000000000000008152600401612927906155a8565b60405180910390fd5b600061293a6125a4565b905061295a81878761294b886135dc565b612954886135dc565b87613656565b600080600086815260200190815260200160002060008873ffffffffffffffffffffffffffffffffffffffff1673ffffffffffffffffffffffffffffffffffffffff168152602001908152602001600020549050838110156129f1576040517f08c379a00000000000000000000000000000000000000000000000000000000081526004016129e89061563a565b60405180910390fd5b83810360008087815260200190815260200160002060008973ffffffffffffffffffffffffffffffffffffffff1673ffffffffffffffffffffffffffffffffffffffff168152602001908152602001600020819055508360008087815260200190815260200160002060008873ffffffffffffffffffffffffffffffffffffffff1673ffffffffffffffffffffffffffffffffffffffff1681526020019081526020016000206000828254612aa69190614fb3565b925050819055508573ffffffffffffffffffffffffffffffffffffffff168773ffffffffffffffffffffffffffffffffffffffff168373ffffffffffffffffffffffffffffffffffffffff167fc3d58168c5ae7397731d063d5bbf3d657854427343f4c083240f7aacaa2d0f628888604051612b2392919061547b565b60405180910390a4612b3982888888888861365e565b50505050505050565b836006600087815260200190815260200160002060010154612b649190614fb3565b6006600087815260200190815260200160002060010181905550826006600087815260200190815260200160002060000154612ba09190614fb3565b60066000878152602001908152602001600020600001819055506007600086815260200190815260200160002060008273ffffffffffffffffffffffffffffffffffffffff1673ffffffffffffffffffffffffffffffffffffffff16815260200190815260200160002060405180608001604052808581526020018681526020018481526020018373ffffffffffffffffffffffffffffffffffffffff16815250908060018154018082558091505060019003906000526020600020906004020160009091909190915060008201518160000155602082015181600101556040820151816002015560608201518160030160006101000a81548173ffffffffffffffffffffffffffffffffffffffff021916908373ffffffffffffffffffffffffffffffffffffffff16021790555050506001600854612ce09190614fb3565b6008819055505050505050565b600073ffffffffffffffffffffffffffffffffffffffff168373ffffffffffffffffffffffffffffffffffffffff161415612d5d576040517f08c379a0000000000000000000000000000000000000000000000000000000008152600401612d5490615703565b60405180910390fd5b8051825114612da1576040517f08c379a0000000000000000000000000000000000000000000000000000000008152600401612d9890615516565b60405180910390fd5b6000612dab6125a4565b9050612dcb81856000868660405180602001604052806000815250613656565b60005b8351811015612f18576000848281518110612dec57612deb614f3b565b5b602002602001015190506000848381518110612e0b57612e0a614f3b565b5b60200260200101519050600080600084815260200190815260200160002060008973ffffffffffffffffffffffffffffffffffffffff1673ffffffffffffffffffffffffffffffffffffffff16815260200190815260200160002054905081811015612eac576040517f08c379a0000000000000000000000000000000000000000000000000000000008152600401612ea390615795565b60405180910390fd5b81810360008085815260200190815260200160002060008a73ffffffffffffffffffffffffffffffffffffffff1673ffffffffffffffffffffffffffffffffffffffff168152602001908152602001600020819055505050508080612f1090614f6a565b915050612dce565b50600073ffffffffffffffffffffffffffffffffffffffff168473ffffffffffffffffffffffffffffffffffffffff168273ffffffffffffffffffffffffffffffffffffffff167f4a39dc06d4c0dbc64b70af90fd698a233a518aa5d07e595d983b8c0526c8f7fb8686604051612f9092919061565a565b60405180910390a450505050565b6000612faa8284610f83565b90506000612fb784611a7a565b90506000612fc4856111d5565b905060005b83518110156131d0576000848281518110612fe757612fe6614f3b565b5b60200260200101519050600061301b613013836000015184600001518861300e9190615349565b61251b565b600a54612460565b9050600061304761303f846020015185602001518861303a9190615349565b61251b565b600954612460565b905080600954101561308e576040517f08c379a000000000000000000000000000000000000000000000000000000000815260040161308590615801565b60405180910390fd5b81600a5410156130d3576040517f08c379a00000000000000000000000000000000000000000000000000000000081526004016130ca9061586d565b60405180910390fd5b806009546130e19190615349565b60098190555081600a546130f59190615349565b600a81905550826040015142111561316f578773ffffffffffffffffffffffffffffffffffffffff166108fc839081150290604051600060405180830381858888f1935050505015801561314d573d6000803e3d6000fd5b5061316a30898b84604051806020016040528060008152506128c0565b6131ba565b60006103e8600b54836131829190614cf1565b61318c9190614d7a565b90506000818361319c9190615349565b90506131a9308c84612063565b6131b78b8286600030612b42565b50505b50505080806131c890614f6a565b915050612fc9565b505050505050565b8173ffffffffffffffffffffffffffffffffffffffff168373ffffffffffffffffffffffffffffffffffffffff161415613247576040517f08c379a000000000000000000000000000000000000000000000000000000000815260040161323e906158ff565b60405180910390fd5b80600160008573ffffffffffffffffffffffffffffffffffffffff1673ffffffffffffffffffffffffffffffffffffffff16815260200190815260200160002060008473ffffffffffffffffffffffffffffffffffffffff1673ffffffffffffffffffffffffffffffffffffffff16815260200190815260200160002060006101000a81548160ff0219169083151502179055508173ffffffffffffffffffffffffffffffffffffffff168373ffffffffffffffffffffffffffffffffffffffff167f17307eab39ab6107e8899845ad3d59bd9653f200f220920489ca2b5937696c31836040516133389190613ebd565b60405180910390a3505050565b600073ffffffffffffffffffffffffffffffffffffffff168373ffffffffffffffffffffffffffffffffffffffff1614156133b5576040517f08c379a00000000000000000000000000000000000000000000000000000000081526004016133ac90615703565b60405180910390fd5b60006133bf6125a4565b90506133ef818560006133d1876135dc565b6133da876135dc565b60405180602001604052806000815250613656565b600080600085815260200190815260200160002060008673ffffffffffffffffffffffffffffffffffffffff1673ffffffffffffffffffffffffffffffffffffffff16815260200190815260200160002054905082811015613486576040517f08c379a000000000000000000000000000000000000000000000000000000000815260040161347d90615795565b60405180910390fd5b82810360008086815260200190815260200160002060008773ffffffffffffffffffffffffffffffffffffffff1673ffffffffffffffffffffffffffffffffffffffff16815260200190815260200160002081905550600073ffffffffffffffffffffffffffffffffffffffff168573ffffffffffffffffffffffffffffffffffffffff168373ffffffffffffffffffffffffffffffffffffffff167fc3d58168c5ae7397731d063d5bbf3d657854427343f4c083240f7aacaa2d0f62878760405161355392919061547b565b60405180910390a45050505050565b60007f4e2312e0000000000000000000000000000000000000000000000000000000007bffffffffffffffffffffffffffffffffffffffffffffffffffffffff1916827bffffffffffffffffffffffffffffffffffffffffffffffffffffffff191614806135d557506135d482613beb565b5b9050919050565b60606000600167ffffffffffffffff8111156135fb576135fa613f20565b5b6040519080825280602002602001820160405280156136295781602001602082028036833780820191505090505b509050828160008151811061364157613640614f3b565b5b60200260200101818152505080915050919050565b505050505050565b61367d8473ffffffffffffffffffffffffffffffffffffffff16613c55565b1561382e578373ffffffffffffffffffffffffffffffffffffffff1663f23a6e6187878686866040518663ffffffff1660e01b81526004016136c3959493929190615974565b6020604051808303816000875af19250505080156136ff57506040513d601f19601f820116820180604052508101906136fc91906159e3565b60015b6137a55761370b615a1d565b806308c379a014156137685750613720615a3f565b8061372b575061376a565b806040517f08c379a000000000000000000000000000000000000000000000000000000000815260040161375f919061412f565b60405180910390fd5b505b6040517f08c379a000000000000000000000000000000000000000000000000000000000815260040161379c90615b47565b60405180910390fd5b63f23a6e6160e01b7bffffffffffffffffffffffffffffffffffffffffffffffffffffffff1916817bffffffffffffffffffffffffffffffffffffffffffffffffffffffff19161461382c576040517f08c379a000000000000000000000000000000000000000000000000000000000815260040161382390615bd9565b60405180910390fd5b505b505050505050565b60008082141561384557600080fd5b600077ffffffffffffffffffffffffffffffffffffffffffffffff84116138825782604085901b8161387a57613879614d4b565b5b0490506139ec565b600060c09050600060c086901c905064010000000081106138ab57602081901c90506020820191505b6201000081106138c357601081901c90506010820191505b61010081106138da57600881901c90506008820191505b601081106138f057600481901c90506004820191505b6004811061390657600281901c90506002820191505b60028110613915576001820191505b600160bf830360018703901c018260ff0387901b8161393757613936614d4b565b5b0492506fffffffffffffffffffffffffffffffff83111561395757600080fd5b6000608086901c8402905060006fffffffffffffffffffffffffffffffff871685029050600060c089901c9050600060408a901b90508281101561399c576001820391505b8281039050608084901b9250828110156139b7576001820391505b8281039050608084901c82146139d0576139cf615bf9565b5b8881816139e0576139df614d4b565b5b04870196505050505050505b6fffffffffffffffffffffffffffffffff811115613a0957600080fd5b8091505092915050565b613a328473ffffffffffffffffffffffffffffffffffffffff16613c55565b15613be3578373ffffffffffffffffffffffffffffffffffffffff1663bc197c8187878686866040518663ffffffff1660e01b8152600401613a78959493929190615c28565b6020604051808303816000875af1925050508015613ab457506040513d601f19601f82011682018060405250810190613ab191906159e3565b60015b613b5a57613ac0615a1d565b806308c379a01415613b1d5750613ad5615a3f565b80613ae05750613b1f565b806040517f08c379a0000000000000000000000000000000000000000000000000000000008152600401613b14919061412f565b60405180910390fd5b505b6040517f08c379a0000000000000000000000000000000000000000000000000000000008152600401613b5190615b47565b60405180910390fd5b63bc197c8160e01b7bffffffffffffffffffffffffffffffffffffffffffffffffffffffff1916817bffffffffffffffffffffffffffffffffffffffffffffffffffffffff191614613be1576040517f08c379a0000000000000000000000000000000000000000000000000000000008152600401613bd890615bd9565b60405180910390fd5b505b505050505050565b60007f01ffc9a7000000000000000000000000000000000000000000000000000000007bffffffffffffffffffffffffffffffffffffffffffffffffffffffff1916827bffffffffffffffffffffffffffffffffffffffffffffffffffffffff1916149050919050565b600080823b905060008111915050919050565b828054613c7490614c24565b90600052602060002090601f016020900481019282613c965760008555613cdd565b82601f10613caf57805160ff1916838001178555613cdd565b82800160010185558215613cdd579182015b82811115613cdc578251825591602001919060010190613cc1565b5b509050613cea9190613cee565b5090565b5b80821115613d07576000816000905550600101613cef565b5090565b6000604051905090565b600080fd5b600080fd5b600073ffffffffffffffffffffffffffffffffffffffff82169050919050565b6000613d4a82613d1f565b9050919050565b613d5a81613d3f565b8114613d6557600080fd5b50565b600081359050613d7781613d51565b92915050565b6000819050919050565b613d9081613d7d565b8114613d9b57600080fd5b50565b600081359050613dad81613d87565b92915050565b60008060408385031215613dca57613dc9613d15565b5b6000613dd885828601613d68565b9250506020613de985828601613d9e565b9150509250929050565b613dfc81613d7d565b82525050565b6000602082019050613e176000830184613df3565b92915050565b60007fffffffff0000000000000000000000000000000000000000000000000000000082169050919050565b613e5281613e1d565b8114613e5d57600080fd5b50565b600081359050613e6f81613e49565b92915050565b600060208284031215613e8b57613e8a613d15565b5b6000613e9984828501613e60565b91505092915050565b60008115159050919050565b613eb781613ea2565b82525050565b6000602082019050613ed26000830184613eae565b92915050565b600060208284031215613eee57613eed613d15565b5b6000613efc84828501613d9e565b91505092915050565b600080fd5b600080fd5b6000601f19601f8301169050919050565b7f4e487b7100000000000000000000000000000000000000000000000000000000600052604160045260246000fd5b613f5882613f0f565b810181811067ffffffffffffffff82111715613f7757613f76613f20565b5b80604052505050565b6000613f8a613d0b565b9050613f968282613f4f565b919050565b600067ffffffffffffffff821115613fb657613fb5613f20565b5b613fbf82613f0f565b9050602081019050919050565b82818337600083830152505050565b6000613fee613fe984613f9b565b613f80565b90508281526020810184848401111561400a57614009613f0a565b5b614015848285613fcc565b509392505050565b600082601f83011261403257614031613f05565b5b8135614042848260208601613fdb565b91505092915050565b6000806040838503121561406257614061613d15565b5b600061407085828601613d9e565b925050602083013567ffffffffffffffff81111561409157614090613d1a565b5b61409d8582860161401d565b9150509250929050565b600081519050919050565b600082825260208201905092915050565b60005b838110156140e15780820151818401526020810190506140c6565b838111156140f0576000848401525b50505050565b6000614101826140a7565b61410b81856140b2565b935061411b8185602086016140c3565b61412481613f0f565b840191505092915050565b6000602082019050818103600083015261414981846140f6565b905092915050565b6000806040838503121561416857614167613d15565b5b600061417685828601613d9e565b925050602061418785828601613d9e565b9150509250929050565b600081600f0b9050919050565b6141a781614191565b82525050565b60006020820190506141c2600083018461419e565b92915050565b600081519050919050565b600082825260208201905092915050565b6000819050602082019050919050565b6141fd81613d7d565b82525050565b61420c81613d3f565b82525050565b60808201600082015161422860008501826141f4565b50602082015161423b60208501826141f4565b50604082015161424e60408501826141f4565b5060608201516142616060850182614203565b50505050565b60006142738383614212565b60808301905092915050565b6000602082019050919050565b6000614297826141c8565b6142a181856141d3565b93506142ac836141e4565b8060005b838110156142dd5781516142c48882614267565b97506142cf8361427f565b9250506001810190506142b0565b5085935050505092915050565b60006020820190508181036000830152614304818461428c565b905092915050565b600067ffffffffffffffff82111561432757614326613f20565b5b602082029050602081019050919050565b600080fd5b600061435061434b8461430c565b613f80565b9050808382526020820190506020840283018581111561437357614372614338565b5b835b8181101561439c57806143888882613d9e565b845260208401935050602081019050614375565b5050509392505050565b600082601f8301126143bb576143ba613f05565b5b81356143cb84826020860161433d565b91505092915050565b600067ffffffffffffffff8211156143ef576143ee613f20565b5b6143f882613f0f565b9050602081019050919050565b6000614418614413846143d4565b613f80565b90508281526020810184848401111561443457614433613f0a565b5b61443f848285613fcc565b509392505050565b600082601f83011261445c5761445b613f05565b5b813561446c848260208601614405565b91505092915050565b600080600080600060a0868803121561449157614490613d15565b5b600061449f88828901613d68565b95505060206144b088828901613d68565b945050604086013567ffffffffffffffff8111156144d1576144d0613d1a565b5b6144dd888289016143a6565b935050606086013567ffffffffffffffff8111156144fe576144fd613d1a565b5b61450a888289016143a6565b925050608086013567ffffffffffffffff81111561452b5761452a613d1a565b5b61453788828901614447565b9150509295509295909350565b60008060006060848603121561455d5761455c613d15565b5b600061456b86828701613d9e565b935050602061457c86828701613d9e565b925050604061458d86828701613d9e565b9150509250925092565b600067ffffffffffffffff8211156145b2576145b1613f20565b5b602082029050602081019050919050565b60006145d66145d184614597565b613f80565b905080838252602082019050602084028301858111156145f9576145f8614338565b5b835b81811015614622578061460e8882613d68565b8452602084019350506020810190506145fb565b5050509392505050565b600082601f83011261464157614640613f05565b5b81356146518482602086016145c3565b91505092915050565b6000806040838503121561467157614670613d15565b5b600083013567ffffffffffffffff81111561468f5761468e613d1a565b5b61469b8582860161462c565b925050602083013567ffffffffffffffff8111156146bc576146bb613d1a565b5b6146c8858286016143a6565b9150509250929050565b600081519050919050565b600082825260208201905092915050565b6000819050602082019050919050565b600061470a83836141f4565b60208301905092915050565b6000602082019050919050565b600061472e826146d2565b61473881856146dd565b9350614743836146ee565b8060005b8381101561477457815161475b88826146fe565b975061476683614716565b925050600181019050614747565b5085935050505092915050565b6000602082019050818103600083015261479b8184614723565b905092915050565b600080604083850312156147ba576147b9613d15565b5b60006147c885828601613d9e565b92505060206147d985828601613d68565b9150509250929050565b6000806000606084860312156147fc576147fb613d15565b5b600061480a86828701613d68565b935050602084013567ffffffffffffffff81111561482b5761482a613d1a565b5b614837868287016143a6565b925050604084013567ffffffffffffffff81111561485857614857613d1a565b5b614864868287016143a6565b9150509250925092565b61487781613ea2565b811461488257600080fd5b50565b6000813590506148948161486e565b92915050565b600080604083850312156148b1576148b0613d15565b5b60006148bf85828601613d68565b92505060206148d085828601614885565b9150509250929050565b6148e381613d3f565b82525050565b60006020820190506148fe60008301846148da565b92915050565b600061490f82613d1f565b9050919050565b61491f81614904565b82525050565b600060208201905061493a6000830184614916565b92915050565b61494981613e1d565b82525050565b60006020820190506149646000830184614940565b92915050565b600060608201905061497f6000830186613df3565b61498c6020830185613df3565b6149996040830184613df3565b949350505050565b6000806000606084860312156149ba576149b9613d15565b5b60006149c886828701613d9e565b93505060206149d986828701613d68565b92505060406149ea86828701613d9e565b9150509250925092565b6000608082019050614a096000830187613df3565b614a166020830186613df3565b614a236040830185613df3565b614a3060608301846148da565b95945050505050565b60008060408385031215614a5057614a4f613d15565b5b6000614a5e85828601613d68565b9250506020614a6f85828601613d68565b9150509250929050565b600080600080600060a08688031215614a9557614a94613d15565b5b6000614aa388828901613d68565b9550506020614ab488828901613d68565b9450506040614ac588828901613d9e565b9350506060614ad688828901613d9e565b925050608086013567ffffffffffffffff811115614af757614af6613d1a565b5b614b0388828901614447565b9150509295509295909350565b600080600060608486031215614b2957614b28613d15565b5b6000614b3786828701613d68565b9350506020614b4886828701613d9e565b9250506040614b5986828701613d9e565b9150509250925092565b7f455243313135353a2062616c616e636520717565727920666f7220746865207a60008201527f65726f2061646472657373000000000000000000000000000000000000000000602082015250565b6000614bbf602b836140b2565b9150614bca82614b63565b604082019050919050565b60006020820190508181036000830152614bee81614bb2565b9050919050565b7f4e487b7100000000000000000000000000000000000000000000000000000000600052602260045260246000fd5b60006002820490506001821680614c3c57607f821691505b60208210811415614c5057614c4f614bf5565b5b50919050565b7f596f7520617265206e6f7420746865206f776e65720000000000000000000000600082015250565b6000614c8c6015836140b2565b9150614c9782614c56565b602082019050919050565b60006020820190508181036000830152614cbb81614c7f565b9050919050565b7f4e487b7100000000000000000000000000000000000000000000000000000000600052601160045260246000fd5b6000614cfc82613d7d565b9150614d0783613d7d565b9250817fffffffffffffffffffffffffffffffffffffffffffffffffffffffffffffffff0483118215151615614d4057614d3f614cc2565b5b828202905092915050565b7f4e487b7100000000000000000000000000000000000000000000000000000000600052601260045260246000fd5b6000614d8582613d7d565b9150614d9083613d7d565b925082614da057614d9f614d4b565b5b828204905092915050565b7f455243313135353a207472616e736665722063616c6c6572206973206e6f742060008201527f6f776e6572206e6f7220617070726f7665640000000000000000000000000000602082015250565b6000614e076032836140b2565b9150614e1282614dab565b604082019050919050565b60006020820190508181036000830152614e3681614dfa565b9050919050565b7f506c6561736520696e697469616c697a652074686520706f6f6c206669727374600082015250565b6000614e736020836140b2565b9150614e7e82614e3d565b602082019050919050565b60006020820190508181036000830152614ea281614e66565b9050919050565b7f455243313135353a206163636f756e747320616e6420696473206c656e67746860008201527f206d69736d617463680000000000000000000000000000000000000000000000602082015250565b6000614f056029836140b2565b9150614f1082614ea9565b604082019050919050565b60006020820190508181036000830152614f3481614ef8565b9050919050565b7f4e487b7100000000000000000000000000000000000000000000000000000000600052603260045260246000fd5b6000614f7582613d7d565b91507fffffffffffffffffffffffffffffffffffffffffffffffffffffffffffffffff821415614fa857614fa7614cc2565b5b600182019050919050565b6000614fbe82613d7d565b9150614fc983613d7d565b9250827fffffffffffffffffffffffffffffffffffffffffffffffffffffffffffffffff03821115614ffe57614ffd614cc2565b5b828201905092915050565b7f455243313135353a2063616c6c6572206973206e6f74206f776e6572206e6f7260008201527f20617070726f7665640000000000000000000000000000000000000000000000602082015250565b60006150656029836140b2565b915061507082615009565b604082019050919050565b6000602082019050818103600083015261509481615058565b9050919050565b7f546865206f776e65722063616e206e6f742072656d6f7665206c69717569646960008201527f7479206265666f72652031207965617220686173207061737400000000000000602082015250565b60006150f76039836140b2565b91506151028261509b565b604082019050919050565b60006020820190508181036000830152615126816150ea565b9050919050565b7f4e6f7420656e6f7567682028544f4b454e2920746f2077697468647261770000600082015250565b6000615163601e836140b2565b915061516e8261512d565b602082019050919050565b6000602082019050818103600083015261519281615156565b9050919050565b7f4e6f7420656e6f75676820284e41544956452920746f20776974686472617700600082015250565b60006151cf601f836140b2565b91506151da82615199565b602082019050919050565b600060208201905081810360008301526151fe816151c2565b9050919050565b7f496e636f72726563742076616c75650000000000000000000000000000000000600082015250565b600061523b600f836140b2565b915061524682615205565b602082019050919050565b6000602082019050818103600083015261526a8161522e565b9050919050565b7f496e737566666963656e74204c697175646974792028544f4b454e2900000000600082015250565b60006152a7601c836140b2565b91506152b282615271565b602082019050919050565b600060208201905081810360008301526152d68161529a565b9050919050565b7f496e737566666963656e74204c6971756469747920284e415449564529000000600082015250565b6000615313601d836140b2565b915061531e826152dd565b602082019050919050565b6000602082019050818103600083015261534281615306565b9050919050565b600061535482613d7d565b915061535f83613d7d565b92508282101561537257615371614cc2565b5b828203905092915050565b7f546865206f776e65722063616e206e6f74206765742072657761726473000000600082015250565b60006153b3601d836140b2565b91506153be8261537d565b602082019050919050565b600060208201905081810360008301526153e2816153a6565b9050919050565b7f455243313135353a206d696e7420746f20746865207a65726f2061646472657360008201527f7300000000000000000000000000000000000000000000000000000000000000602082015250565b60006154456021836140b2565b9150615450826153e9565b604082019050919050565b6000602082019050818103600083015261547481615438565b9050919050565b60006040820190506154906000830185613df3565b61549d6020830184613df3565b9392505050565b7f455243313135353a2069647320616e6420616d6f756e7473206c656e6774682060008201527f6d69736d61746368000000000000000000000000000000000000000000000000602082015250565b60006155006028836140b2565b915061550b826154a4565b604082019050919050565b6000602082019050818103600083015261552f816154f3565b9050919050565b7f455243313135353a207472616e7366657220746f20746865207a65726f20616460008201527f6472657373000000000000000000000000000000000000000000000000000000602082015250565b60006155926025836140b2565b915061559d82615536565b604082019050919050565b600060208201905081810360008301526155c181615585565b9050919050565b7f455243313135353a20696e73756666696369656e742062616c616e636520666f60008201527f72207472616e7366657200000000000000000000000000000000000000000000602082015250565b6000615624602a836140b2565b915061562f826155c8565b604082019050919050565b6000602082019050818103600083015261565381615617565b9050919050565b600060408201905081810360008301526156748185614723565b905081810360208301526156888184614723565b90509392505050565b7f455243313135353a206275726e2066726f6d20746865207a65726f206164647260008201527f6573730000000000000000000000000000000000000000000000000000000000602082015250565b60006156ed6023836140b2565b91506156f882615691565b604082019050919050565b6000602082019050818103600083015261571c816156e0565b9050919050565b7f455243313135353a206275726e20616d6f756e7420657863656564732062616c60008201527f616e636500000000000000000000000000000000000000000000000000000000602082015250565b600061577f6024836140b2565b915061578a82615723565b604082019050919050565b600060208201905081810360008301526157ae81615772565b9050919050565b7f4e6f7420656e6f756768206c697175646974792028544f4b454e290000000000600082015250565b60006157eb601b836140b2565b91506157f6826157b5565b602082019050919050565b6000602082019050818103600083015261581a816157de565b9050919050565b7f4e6f7420656e6f756768206c6971756469747920284e41544956452900000000600082015250565b6000615857601c836140b2565b915061586282615821565b602082019050919050565b600060208201905081810360008301526158868161584a565b9050919050565b7f455243313135353a2073657474696e6720617070726f76616c2073746174757360008201527f20666f722073656c660000000000000000000000000000000000000000000000602082015250565b60006158e96029836140b2565b91506158f48261588d565b604082019050919050565b60006020820190508181036000830152615918816158dc565b9050919050565b600081519050919050565b600082825260208201905092915050565b60006159468261591f565b615950818561592a565b93506159608185602086016140c3565b61596981613f0f565b840191505092915050565b600060a08201905061598960008301886148da565b61599660208301876148da565b6159a36040830186613df3565b6159b06060830185613df3565b81810360808301526159c2818461593b565b90509695505050505050565b6000815190506159dd81613e49565b92915050565b6000602082840312156159f9576159f8613d15565b5b6000615a07848285016159ce565b91505092915050565b60008160e01c9050919050565b600060033d1115615a3c5760046000803e615a39600051615a10565b90505b90565b600060443d1015615a4f57615ad2565b615a57613d0b565b60043d036004823e80513d602482011167ffffffffffffffff82111715615a7f575050615ad2565b808201805167ffffffffffffffff811115615a9d5750505050615ad2565b80602083010160043d038501811115615aba575050505050615ad2565b615ac982602001850186613f4f565b82955050505050505b90565b7f455243313135353a207472616e7366657220746f206e6f6e204552433131353560008201527f526563656976657220696d706c656d656e746572000000000000000000000000602082015250565b6000615b316034836140b2565b9150615b3c82615ad5565b604082019050919050565b60006020820190508181036000830152615b6081615b24565b9050919050565b7f455243313135353a204552433131353552656365697665722072656a6563746560008201527f6420746f6b656e73000000000000000000000000000000000000000000000000602082015250565b6000615bc36028836140b2565b9150615bce82615b67565b604082019050919050565b60006020820190508181036000830152615bf281615bb6565b9050919050565b7f4e487b7100000000000000000000000000000000000000000000000000000000600052600160045260246000fd5b600060a082019050615c3d60008301886148da565b615c4a60208301876148da565b8181036040830152615c5c8186614723565b90508181036060830152615c708185614723565b90508181036080830152615c84818461593b565b9050969550505050505056fea2646970667358221220f803fa60dc4ede46397173284917072b927aded657f9fae08403e9900783995b64736f6c634300080a0033",
  "linkReferences": {},
  "deployedLinkReferences": {}
}