{
  "_format": "hh-sol-artifact-1",
  "contractName": "Property",
  "sourceName": "contracts/Property.sol",
  "abi": [
    {
      "inputs": [],
      "stateMutability": "nonpayable",
      "type": "constructor"
    },
    {
      "anonymous": false,
      "inputs": [
        {
          "indexed": true,
          "internalType": "address",
          "name": "account",
          "type": "address"
        },
        {
          "indexed": true,
          "internalType": "address",
          "name": "operator",
          "type": "address"
        },
        {
          "indexed": false,
          "internalType": "bool",
          "name": "approved",
          "type": "bool"
        }
      ],
      "name": "ApprovalForAll",
      "type": "event"
    },
    {
      "anonymous": false,
      "inputs": [
        {
          "indexed": false,
          "internalType": "uint256",
          "name": "id",
          "type": "uint256"
        }
      ],
      "name": "MintProperty",
      "type": "event"
    },
    {
      "anonymous": false,
      "inputs": [
        {
          "indexed": true,
          "internalType": "address",
          "name": "operator",
          "type": "address"
        },
        {
          "indexed": true,
          "internalType": "address",
          "name": "from",
          "type": "address"
        },
        {
          "indexed": true,
          "internalType": "address",
          "name": "to",
          "type": "address"
        },
        {
          "indexed": false,
          "internalType": "uint256[]",
          "name": "ids",
          "type": "uint256[]"
        },
        {
          "indexed": false,
          "internalType": "uint256[]",
          "name": "values",
          "type": "uint256[]"
        }
      ],
      "name": "TransferBatch",
      "type": "event"
    },
    {
      "anonymous": false,
      "inputs": [
        {
          "indexed": true,
          "internalType": "address",
          "name": "operator",
          "type": "address"
        },
        {
          "indexed": true,
          "internalType": "address",
          "name": "from",
          "type": "address"
        },
        {
          "indexed": true,
          "internalType": "address",
          "name": "to",
          "type": "address"
        },
        {
          "indexed": false,
          "internalType": "uint256",
          "name": "id",
          "type": "uint256"
        },
        {
          "indexed": false,
          "internalType": "uint256",
          "name": "value",
          "type": "uint256"
        }
      ],
      "name": "TransferSingle",
      "type": "event"
    },
    {
      "anonymous": false,
      "inputs": [
        {
          "indexed": false,
          "internalType": "string",
          "name": "value",
          "type": "string"
        },
        {
          "indexed": true,
          "internalType": "uint256",
          "name": "id",
          "type": "uint256"
        }
      ],
      "name": "URI",
      "type": "event"
    },
    {
      "inputs": [
        {
          "internalType": "address",
          "name": "account",
          "type": "address"
        },
        {
          "internalType": "uint256",
          "name": "id",
          "type": "uint256"
        }
      ],
      "name": "balanceOf",
      "outputs": [
        {
          "internalType": "uint256",
          "name": "",
          "type": "uint256"
        }
      ],
      "stateMutability": "view",
      "type": "function"
    },
    {
      "inputs": [
        {
          "internalType": "address[]",
          "name": "accounts",
          "type": "address[]"
        },
        {
          "internalType": "uint256[]",
          "name": "ids",
          "type": "uint256[]"
        }
      ],
      "name": "balanceOfBatch",
      "outputs": [
        {
          "internalType": "uint256[]",
          "name": "",
          "type": "uint256[]"
        }
      ],
      "stateMutability": "view",
      "type": "function"
    },
    {
      "inputs": [
        {
          "internalType": "uint256",
          "name": "",
          "type": "uint256"
        }
      ],
      "name": "buyingTokens_",
      "outputs": [
        {
          "internalType": "uint256",
          "name": "",
          "type": "uint256"
        }
      ],
      "stateMutability": "view",
      "type": "function"
    },
    {
      "inputs": [
        {
          "internalType": "uint256",
          "name": "_id",
          "type": "uint256"
        }
      ],
      "name": "getPricePerShare",
      "outputs": [
        {
          "internalType": "uint256",
          "name": "",
          "type": "uint256"
        }
      ],
      "stateMutability": "view",
      "type": "function"
    },
    {
      "inputs": [
        {
          "internalType": "uint256",
          "name": "_id",
          "type": "uint256"
        }
      ],
      "name": "getTokenOwner",
      "outputs": [
        {
          "internalType": "address payable",
          "name": "",
          "type": "address"
        }
      ],
      "stateMutability": "view",
      "type": "function"
    },
    {
      "inputs": [],
      "name": "id_",
      "outputs": [
        {
          "internalType": "uint256",
          "name": "_value",
          "type": "uint256"
        }
      ],
      "stateMutability": "view",
      "type": "function"
    },
    {
      "inputs": [
        {
          "internalType": "address",
          "name": "account",
          "type": "address"
        },
        {
          "internalType": "address",
          "name": "operator",
          "type": "address"
        }
      ],
      "name": "isApprovedForAll",
      "outputs": [
        {
          "internalType": "bool",
          "name": "",
          "type": "bool"
        }
      ],
      "stateMutability": "view",
      "type": "function"
    },
    {
      "inputs": [
        {
          "internalType": "uint256",
          "name": "_shares",
          "type": "uint256"
        },
        {
          "internalType": "uint256",
          "name": "_pricePerShare",
          "type": "uint256"
        },
        {
          "internalType": "uint256",
          "name": "_sharesForSale",
          "type": "uint256"
        },
        {
          "internalType": "string",
          "name": "_uri",
          "type": "string"
        }
      ],
      "name": "mintProperty",
      "outputs": [],
      "stateMutability": "nonpayable",
      "type": "function"
    },
    {
      "inputs": [
        {
          "internalType": "uint256",
          "name": "",
          "type": "uint256"
        }
      ],
      "name": "pricePerShare_",
      "outputs": [
        {
          "internalType": "uint256",
          "name": "",
          "type": "uint256"
        }
      ],
      "stateMutability": "view",
      "type": "function"
    },
    {
      "inputs": [
        {
          "internalType": "uint256",
          "name": "_shares",
          "type": "uint256"
        },
        {
          "internalType": "uint256",
          "name": "_id",
          "type": "uint256"
        }
      ],
      "name": "purchaseShares",
      "outputs": [],
      "stateMutability": "payable",
      "type": "function"
    },
    {
      "inputs": [
        {
          "internalType": "address",
          "name": "from",
          "type": "address"
        },
        {
          "internalType": "address",
          "name": "to",
          "type": "address"
        },
        {
          "internalType": "uint256[]",
          "name": "ids",
          "type": "uint256[]"
        },
        {
          "internalType": "uint256[]",
          "name": "amounts",
          "type": "uint256[]"
        },
        {
          "internalType": "bytes",
          "name": "data",
          "type": "bytes"
        }
      ],
      "name": "safeBatchTransferFrom",
      "outputs": [],
      "stateMutability": "nonpayable",
      "type": "function"
    },
    {
      "inputs": [
        {
          "internalType": "address",
          "name": "from",
          "type": "address"
        },
        {
          "internalType": "address",
          "name": "to",
          "type": "address"
        },
        {
          "internalType": "uint256",
          "name": "id",
          "type": "uint256"
        },
        {
          "internalType": "uint256",
          "name": "amount",
          "type": "uint256"
        },
        {
          "internalType": "bytes",
          "name": "data",
          "type": "bytes"
        }
      ],
      "name": "safeTransferFrom",
      "outputs": [],
      "stateMutability": "nonpayable",
      "type": "function"
    },
    {
      "inputs": [
        {
          "internalType": "uint256",
          "name": "shares_",
          "type": "uint256"
        },
        {
          "internalType": "uint256",
          "name": "_id",
          "type": "uint256"
        }
      ],
      "name": "sellShares",
      "outputs": [],
      "stateMutability": "nonpayable",
      "type": "function"
    },
    {
      "inputs": [
        {
          "internalType": "uint256",
          "name": "",
          "type": "uint256"
        }
      ],
      "name": "sellingTokens_",
      "outputs": [
        {
          "internalType": "uint256",
          "name": "",
          "type": "uint256"
        }
      ],
      "stateMutability": "view",
      "type": "function"
    },
    {
      "inputs": [
        {
          "internalType": "address",
          "name": "operator",
          "type": "address"
        },
        {
          "internalType": "bool",
          "name": "approved",
          "type": "bool"
        }
      ],
      "name": "setApprovalForAll",
      "outputs": [],
      "stateMutability": "nonpayable",
      "type": "function"
    },
    {
      "inputs": [
        {
          "internalType": "uint256",
          "name": "_newSharesToSell",
          "type": "uint256"
        },
        {
          "internalType": "uint256",
          "name": "_id",
          "type": "uint256"
        }
      ],
      "name": "setBuyingShares",
      "outputs": [],
      "stateMutability": "nonpayable",
      "type": "function"
    },
    {
      "inputs": [
        {
          "internalType": "uint256",
          "name": "_newSharesToSell",
          "type": "uint256"
        },
        {
          "internalType": "uint256",
          "name": "_id",
          "type": "uint256"
        }
      ],
      "name": "setSellingShares",
      "outputs": [],
      "stateMutability": "nonpayable",
      "type": "function"
    },
    {
      "inputs": [
        {
          "internalType": "uint256",
          "name": "_id",
          "type": "uint256"
        },
        {
          "internalType": "string",
          "name": "_uri",
          "type": "string"
        }
      ],
      "name": "setTokenURI",
      "outputs": [],
      "stateMutability": "nonpayable",
      "type": "function"
    },
    {
      "inputs": [
        {
          "internalType": "bytes4",
          "name": "interfaceId",
          "type": "bytes4"
        }
      ],
      "name": "supportsInterface",
      "outputs": [
        {
          "internalType": "bool",
          "name": "",
          "type": "bool"
        }
      ],
      "stateMutability": "view",
      "type": "function"
    },
    {
      "inputs": [
        {
          "internalType": "uint256",
          "name": "",
          "type": "uint256"
        }
      ],
      "name": "tokenDeployers_",
      "outputs": [
        {
          "internalType": "address",
          "name": "",
          "type": "address"
        }
      ],
      "stateMutability": "view",
      "type": "function"
    },
    {
      "inputs": [
        {
          "internalType": "uint256",
          "name": "_tokenID",
          "type": "uint256"
        }
      ],
      "name": "uri",
      "outputs": [
        {
          "internalType": "string",
          "name": "",
          "type": "string"
        }
      ],
      "stateMutability": "view",
      "type": "function"
    },
    {
      "inputs": [
        {
          "internalType": "address",
          "name": "",
          "type": "address"
        }
      ],
      "name": "valueLocked_",
      "outputs": [
        {
          "internalType": "uint256",
          "name": "",
          "type": "uint256"
        }
      ],
      "stateMutability": "view",
      "type": "function"
    },
    {
      "stateMutability": "payable",
      "type": "receive"
    }
  ],
  "bytecode": "0x60806040523480156200001157600080fd5b506040518060400160405280600b81526020017f697066733a2f2f7b69647d00000000000000000000000000000000000000000081525062000059816200006060201b60201c565b5062000191565b8060029080519060200190620000789291906200007c565b5050565b8280546200008a906200015b565b90600052602060002090601f016020900481019282620000ae5760008555620000fa565b82601f10620000c957805160ff1916838001178555620000fa565b82800160010185558215620000fa579182015b82811115620000f9578251825591602001919060010190620000dc565b5b5090506200010991906200010d565b5090565b5b80821115620001285760008160009055506001016200010e565b5090565b7f4e487b7100000000000000000000000000000000000000000000000000000000600052602260045260246000fd5b600060028204905060018216806200017457607f821691505b602082108114156200018b576200018a6200012c565b5b50919050565b613c5880620001a16000396000f3fe6080604052600436106101385760003560e01c8063636ed626116100ab578063a5cd761f1161006f578063a5cd761f14610518578063bf44dfa314610555578063d2bcdc6014610592578063e985e9c5146105ae578063f242432a146105eb578063f6320eff14610614576101cd565b8063636ed626146104215780636f2198311461044a5780637bd1557514610475578063a22cb465146104b2578063a2c615ca146104db576101cd565b8063229bb5ce116100fd578063229bb5ce146102db5780632506c934146103185780632eb2c2d61461035557806348b54e591461037e5780634e1273f4146103bb5780635b7ac073146103f8576101cd565b8062fdd58e146101d257806301ffc9a71461020f5780630e89341c1461024c578063162094c4146102895780632279a970146102b2576101cd565b366101cd5734600460003373ffffffffffffffffffffffffffffffffffffffff1673ffffffffffffffffffffffffffffffffffffffff16815260200190815260200160002054610188919061225f565b600460003373ffffffffffffffffffffffffffffffffffffffff1673ffffffffffffffffffffffffffffffffffffffff16815260200190815260200160002081905550005b600080fd5b3480156101de57600080fd5b506101f960048036038101906101f49190612353565b61063d565b60405161020691906123a2565b60405180910390f35b34801561021b57600080fd5b5061023660048036038101906102319190612415565b610706565b604051610243919061245d565b60405180910390f35b34801561025857600080fd5b50610273600480360381019061026e9190612478565b6107e8565b604051610280919061253e565b60405180910390f35b34801561029557600080fd5b506102b060048036038101906102ab9190612695565b61088d565b005b3480156102be57600080fd5b506102d960048036038101906102d491906126f1565b610935565b005b3480156102e757600080fd5b5061030260048036038101906102fd9190612478565b610bb8565b60405161030f91906123a2565b60405180910390f35b34801561032457600080fd5b5061033f600480360381019061033a9190612478565b610bd5565b60405161034c91906123a2565b60405180910390f35b34801561036157600080fd5b5061037c6004803603810190610377919061289a565b610bed565b005b34801561038a57600080fd5b506103a560048036038101906103a09190612478565b610c8e565b6040516103b291906123a2565b60405180910390f35b3480156103c757600080fd5b506103e260048036038101906103dd9190612a2c565b610ca6565b6040516103ef9190612b62565b60405180910390f35b34801561040457600080fd5b5061041f600480360381019061041a9190612b84565b610dbf565b005b34801561042d57600080fd5b50610448600480360381019061044391906126f1565b610eda565b005b34801561045657600080fd5b5061045f610f97565b60405161046c91906123a2565b60405180910390f35b34801561048157600080fd5b5061049c60048036038101906104979190612478565b610fa3565b6040516104a991906123a2565b60405180910390f35b3480156104be57600080fd5b506104d960048036038101906104d49190612c33565b610fbb565b005b3480156104e757600080fd5b5061050260048036038101906104fd9190612478565b610fd1565b60405161050f9190612c82565b60405180910390f35b34801561052457600080fd5b5061053f600480360381019061053a9190612478565b611004565b60405161054c9190612cbe565b60405180910390f35b34801561056157600080fd5b5061057c60048036038101906105779190612cd9565b611041565b60405161058991906123a2565b60405180910390f35b6105ac60048036038101906105a791906126f1565b611059565b005b3480156105ba57600080fd5b506105d560048036038101906105d09190612d06565b6111e0565b6040516105e2919061245d565b60405180910390f35b3480156105f757600080fd5b50610612600480360381019061060d9190612d46565b611274565b005b34801561062057600080fd5b5061063b600480360381019061063691906126f1565b611352565b005b60008073ffffffffffffffffffffffffffffffffffffffff168373ffffffffffffffffffffffffffffffffffffffff1614156106ae576040517f08c379a00000000000000000000000000000000000000000000000000000000081526004016106a590612e4f565b60405180910390fd5b60008083815260200190815260200160002060008473ffffffffffffffffffffffffffffffffffffffff1673ffffffffffffffffffffffffffffffffffffffff16815260200190815260200160002054905092915050565b60007fd9b67a26000000000000000000000000000000000000000000000000000000007bffffffffffffffffffffffffffffffffffffffffffffffffffffffff1916827bffffffffffffffffffffffffffffffffffffffffffffffffffffffff191614806107d157507f0e89341c000000000000000000000000000000000000000000000000000000007bffffffffffffffffffffffffffffffffffffffffffffffffffffffff1916827bffffffffffffffffffffffffffffffffffffffffffffffffffffffff1916145b806107e157506107e08261140f565b5b9050919050565b606060086000838152602001908152602001600020805461080890612e9e565b80601f016020809104026020016040519081016040528092919081815260200182805461083490612e9e565b80156108815780601f1061085657610100808354040283529160200191610881565b820191906000526020600020905b81548152906001019060200180831161086457829003601f168201915b50505050509050919050565b600061089883611004565b90508073ffffffffffffffffffffffffffffffffffffffff163373ffffffffffffffffffffffffffffffffffffffff1614610908576040517f08c379a00000000000000000000000000000000000000000000000000000000081526004016108ff90612f1c565b60405180910390fd5b8160086000858152602001908152602001600020908051906020019061092f929190612183565b50505050565b600061094082610bb8565b9050600061094d83611004565b905083600760008581526020019081526020016000205410156109a5576040517f08c379a000000000000000000000000000000000000000000000000000000000815260040161099c90612f88565b60405180910390fd5b833073ffffffffffffffffffffffffffffffffffffffff1662fdd58e33866040518363ffffffff1660e01b81526004016109e0929190612fa8565b602060405180830381865afa1580156109fd573d6000803e3d6000fd5b505050506040513d601f19601f82011682018060405250810190610a219190612fe6565b1015610a62576040517f08c379a0000000000000000000000000000000000000000000000000000000008152600401610a599061305f565b60405180910390fd5b8184610a6e919061307f565b600460008373ffffffffffffffffffffffffffffffffffffffff1673ffffffffffffffffffffffffffffffffffffffff168152602001908152602001600020541015610aef576040517f08c379a0000000000000000000000000000000000000000000000000000000008152600401610ae69061314b565b60405180910390fd5b3073ffffffffffffffffffffffffffffffffffffffff1663f242432a338386886040518563ffffffff1660e01b8152600401610b2e94939291906131a2565b600060405180830381600087803b158015610b4857600080fd5b505af1158015610b5c573d6000803e3d6000fd5b505050503373ffffffffffffffffffffffffffffffffffffffff166108fc8386610b86919061307f565b9081150290604051600060405180830381858888f19350505050158015610bb1573d6000803e3d6000fd5b5050505050565b600060036000838152602001908152602001600020549050919050565b60066020528060005260406000206000915090505481565b610bf5611479565b73ffffffffffffffffffffffffffffffffffffffff168573ffffffffffffffffffffffffffffffffffffffff161480610c3b5750610c3a85610c35611479565b6111e0565b5b610c7a576040517f08c379a0000000000000000000000000000000000000000000000000000000008152600401610c719061326c565b60405180910390fd5b610c878585858585611481565b5050505050565b60076020528060005260406000206000915090505481565b60608151835114610cec576040517f08c379a0000000000000000000000000000000000000000000000000000000008152600401610ce3906132fe565b60405180910390fd5b6000835167ffffffffffffffff811115610d0957610d0861256a565b5b604051908082528060200260200182016040528015610d375781602001602082028036833780820191505090505b50905060005b8451811015610db457610d84858281518110610d5c57610d5b61331e565b5b6020026020010151858381518110610d7757610d7661331e565b5b602002602001015161063d565b828281518110610d9757610d9661331e565b5b60200260200101818152505080610dad9061334d565b9050610d3d565b508091505092915050565b6000610dcb6009611795565b9050610dd760096117a3565b610df2338287604051806020016040528060008152506117b9565b836003600083815260200190815260200160002081905550336005600083815260200190815260200160002060006101000a81548173ffffffffffffffffffffffffffffffffffffffff021916908373ffffffffffffffffffffffffffffffffffffffff16021790555082600660008381526020019081526020016000208190555081600860008381526020019081526020016000209080519060200190610e9b929190612183565b507f7ca4fe143786fe32ae51282d048ad4214074343b478b41045b265828711bce0f81604051610ecb91906123a2565b60405180910390a15050505050565b6005600082815260200190815260200160002060009054906101000a900473ffffffffffffffffffffffffffffffffffffffff1673ffffffffffffffffffffffffffffffffffffffff163373ffffffffffffffffffffffffffffffffffffffff1614610f7b576040517f08c379a0000000000000000000000000000000000000000000000000000000008152600401610f7290612f1c565b60405180910390fd5b8160076000838152602001908152602001600020819055505050565b60098060000154905081565b60036020528060005260406000206000915090505481565b610fcd610fc6611479565b838361194f565b5050565b60056020528060005260406000206000915054906101000a900473ffffffffffffffffffffffffffffffffffffffff1681565b60006005600083815260200190815260200160002060009054906101000a900473ffffffffffffffffffffffffffffffffffffffff169050919050565b60046020528060005260406000206000915090505481565b600061106482611004565b9050600061107183610bb8565b9050838161107f919061307f565b3410156110c1576040517f08c379a00000000000000000000000000000000000000000000000000000000081526004016110b8906133e2565b60405180910390fd5b6006600084815260200190815260200160002054841115611117576040517f08c379a000000000000000000000000000000000000000000000000000000000815260040161110e9061344e565b60405180910390fd5b8173ffffffffffffffffffffffffffffffffffffffff166108fc858361113d919061307f565b9081150290604051600060405180830381858888f19350505050158015611168573d6000803e3d6000fd5b503073ffffffffffffffffffffffffffffffffffffffff1663f242432a833386886040518563ffffffff1660e01b81526004016111a894939291906134cd565b600060405180830381600087803b1580156111c257600080fd5b505af11580156111d6573d6000803e3d6000fd5b5050505050505050565b6000600160008473ffffffffffffffffffffffffffffffffffffffff1673ffffffffffffffffffffffffffffffffffffffff16815260200190815260200160002060008373ffffffffffffffffffffffffffffffffffffffff1673ffffffffffffffffffffffffffffffffffffffff16815260200190815260200160002060009054906101000a900460ff16905092915050565b61127c611479565b73ffffffffffffffffffffffffffffffffffffffff168573ffffffffffffffffffffffffffffffffffffffff1614806112c257506112c1856112bc611479565b6111e0565b5b806112ff57503073ffffffffffffffffffffffffffffffffffffffff166112e7611479565b73ffffffffffffffffffffffffffffffffffffffff16145b61133e576040517f08c379a000000000000000000000000000000000000000000000000000000000815260040161133590613597565b60405180910390fd5b61134b8585858585611abc565b5050505050565b6005600082815260200190815260200160002060009054906101000a900473ffffffffffffffffffffffffffffffffffffffff1673ffffffffffffffffffffffffffffffffffffffff163373ffffffffffffffffffffffffffffffffffffffff16146113f3576040517f08c379a00000000000000000000000000000000000000000000000000000000081526004016113ea90612f1c565b60405180910390fd5b8160066000838152602001908152602001600020819055505050565b60007f01ffc9a7000000000000000000000000000000000000000000000000000000007bffffffffffffffffffffffffffffffffffffffffffffffffffffffff1916827bffffffffffffffffffffffffffffffffffffffffffffffffffffffff1916149050919050565b600033905090565b81518351146114c5576040517f08c379a00000000000000000000000000000000000000000000000000000000081526004016114bc90613629565b60405180910390fd5b600073ffffffffffffffffffffffffffffffffffffffff168473ffffffffffffffffffffffffffffffffffffffff161415611535576040517f08c379a000000000000000000000000000000000000000000000000000000000815260040161152c906136bb565b60405180910390fd5b600061153f611479565b905061154f818787878787611d3e565b60005b84518110156117005760008582815181106115705761156f61331e565b5b60200260200101519050600085838151811061158f5761158e61331e565b5b60200260200101519050600080600084815260200190815260200160002060008b73ffffffffffffffffffffffffffffffffffffffff1673ffffffffffffffffffffffffffffffffffffffff16815260200190815260200160002054905081811015611630576040517f08c379a00000000000000000000000000000000000000000000000000000000081526004016116279061374d565b60405180910390fd5b81810360008085815260200190815260200160002060008c73ffffffffffffffffffffffffffffffffffffffff1673ffffffffffffffffffffffffffffffffffffffff168152602001908152602001600020819055508160008085815260200190815260200160002060008b73ffffffffffffffffffffffffffffffffffffffff1673ffffffffffffffffffffffffffffffffffffffff16815260200190815260200160002060008282546116e5919061225f565b92505081905550505050806116f99061334d565b9050611552565b508473ffffffffffffffffffffffffffffffffffffffff168673ffffffffffffffffffffffffffffffffffffffff168273ffffffffffffffffffffffffffffffffffffffff167f4a39dc06d4c0dbc64b70af90fd698a233a518aa5d07e595d983b8c0526c8f7fb878760405161177792919061376d565b60405180910390a461178d818787878787611d46565b505050505050565b600081600001549050919050565b6001816000016000828254019250508190555050565b600073ffffffffffffffffffffffffffffffffffffffff168473ffffffffffffffffffffffffffffffffffffffff161415611829576040517f08c379a000000000000000000000000000000000000000000000000000000000815260040161182090613816565b60405180910390fd5b6000611833611479565b90506118548160008761184588611f1e565b61184e88611f1e565b87611d3e565b8260008086815260200190815260200160002060008773ffffffffffffffffffffffffffffffffffffffff1673ffffffffffffffffffffffffffffffffffffffff16815260200190815260200160002060008282546118b3919061225f565b925050819055508473ffffffffffffffffffffffffffffffffffffffff16600073ffffffffffffffffffffffffffffffffffffffff168273ffffffffffffffffffffffffffffffffffffffff167fc3d58168c5ae7397731d063d5bbf3d657854427343f4c083240f7aacaa2d0f628787604051611931929190613836565b60405180910390a461194881600087878787611f98565b5050505050565b8173ffffffffffffffffffffffffffffffffffffffff168373ffffffffffffffffffffffffffffffffffffffff1614156119be576040517f08c379a00000000000000000000000000000000000000000000000000000000081526004016119b5906138d1565b60405180910390fd5b80600160008573ffffffffffffffffffffffffffffffffffffffff1673ffffffffffffffffffffffffffffffffffffffff16815260200190815260200160002060008473ffffffffffffffffffffffffffffffffffffffff1673ffffffffffffffffffffffffffffffffffffffff16815260200190815260200160002060006101000a81548160ff0219169083151502179055508173ffffffffffffffffffffffffffffffffffffffff168373ffffffffffffffffffffffffffffffffffffffff167f17307eab39ab6107e8899845ad3d59bd9653f200f220920489ca2b5937696c3183604051611aaf919061245d565b60405180910390a3505050565b600073ffffffffffffffffffffffffffffffffffffffff168473ffffffffffffffffffffffffffffffffffffffff161415611b2c576040517f08c379a0000000000000000000000000000000000000000000000000000000008152600401611b23906136bb565b60405180910390fd5b6000611b36611479565b9050611b56818787611b4788611f1e565b611b5088611f1e565b87611d3e565b600080600086815260200190815260200160002060008873ffffffffffffffffffffffffffffffffffffffff1673ffffffffffffffffffffffffffffffffffffffff16815260200190815260200160002054905083811015611bed576040517f08c379a0000000000000000000000000000000000000000000000000000000008152600401611be49061374d565b60405180910390fd5b83810360008087815260200190815260200160002060008973ffffffffffffffffffffffffffffffffffffffff1673ffffffffffffffffffffffffffffffffffffffff168152602001908152602001600020819055508360008087815260200190815260200160002060008873ffffffffffffffffffffffffffffffffffffffff1673ffffffffffffffffffffffffffffffffffffffff1681526020019081526020016000206000828254611ca2919061225f565b925050819055508573ffffffffffffffffffffffffffffffffffffffff168773ffffffffffffffffffffffffffffffffffffffff168373ffffffffffffffffffffffffffffffffffffffff167fc3d58168c5ae7397731d063d5bbf3d657854427343f4c083240f7aacaa2d0f628888604051611d1f929190613836565b60405180910390a4611d35828888888888611f98565b50505050505050565b505050505050565b611d658473ffffffffffffffffffffffffffffffffffffffff16612170565b15611f16578373ffffffffffffffffffffffffffffffffffffffff1663bc197c8187878686866040518663ffffffff1660e01b8152600401611dab959493929190613935565b6020604051808303816000875af1925050508015611de757506040513d601f19601f82011682018060405250810190611de491906139b2565b60015b611e8d57611df36139ec565b806308c379a01415611e505750611e08613a0e565b80611e135750611e52565b806040517f08c379a0000000000000000000000000000000000000000000000000000000008152600401611e47919061253e565b60405180910390fd5b505b6040517f08c379a0000000000000000000000000000000000000000000000000000000008152600401611e8490613b16565b60405180910390fd5b63bc197c8160e01b7bffffffffffffffffffffffffffffffffffffffffffffffffffffffff1916817bffffffffffffffffffffffffffffffffffffffffffffffffffffffff191614611f14576040517f08c379a0000000000000000000000000000000000000000000000000000000008152600401611f0b90613ba8565b60405180910390fd5b505b505050505050565b60606000600167ffffffffffffffff811115611f3d57611f3c61256a565b5b604051908082528060200260200182016040528015611f6b5781602001602082028036833780820191505090505b5090508281600081518110611f8357611f8261331e565b5b60200260200101818152505080915050919050565b611fb78473ffffffffffffffffffffffffffffffffffffffff16612170565b15612168578373ffffffffffffffffffffffffffffffffffffffff1663f23a6e6187878686866040518663ffffffff1660e01b8152600401611ffd959493929190613bc8565b6020604051808303816000875af192505050801561203957506040513d601f19601f8201168201806040525081019061203691906139b2565b60015b6120df576120456139ec565b806308c379a014156120a2575061205a613a0e565b8061206557506120a4565b806040517f08c379a0000000000000000000000000000000000000000000000000000000008152600401612099919061253e565b60405180910390fd5b505b6040517f08c379a00000000000000000000000000000000000000000000000000000000081526004016120d690613b16565b60405180910390fd5b63f23a6e6160e01b7bffffffffffffffffffffffffffffffffffffffffffffffffffffffff1916817bffffffffffffffffffffffffffffffffffffffffffffffffffffffff191614612166576040517f08c379a000000000000000000000000000000000000000000000000000000000815260040161215d90613ba8565b60405180910390fd5b505b505050505050565b600080823b905060008111915050919050565b82805461218f90612e9e565b90600052602060002090601f0160209004810192826121b157600085556121f8565b82601f106121ca57805160ff19168380011785556121f8565b828001600101855582156121f8579182015b828111156121f75782518255916020019190600101906121dc565b5b5090506122059190612209565b5090565b5b8082111561222257600081600090555060010161220a565b5090565b6000819050919050565b7f4e487b7100000000000000000000000000000000000000000000000000000000600052601160045260246000fd5b600061226a82612226565b915061227583612226565b9250827fffffffffffffffffffffffffffffffffffffffffffffffffffffffffffffffff038211156122aa576122a9612230565b5b828201905092915050565b6000604051905090565b600080fd5b600080fd5b600073ffffffffffffffffffffffffffffffffffffffff82169050919050565b60006122f4826122c9565b9050919050565b612304816122e9565b811461230f57600080fd5b50565b600081359050612321816122fb565b92915050565b61233081612226565b811461233b57600080fd5b50565b60008135905061234d81612327565b92915050565b6000806040838503121561236a576123696122bf565b5b600061237885828601612312565b92505060206123898582860161233e565b9150509250929050565b61239c81612226565b82525050565b60006020820190506123b76000830184612393565b92915050565b60007fffffffff0000000000000000000000000000000000000000000000000000000082169050919050565b6123f2816123bd565b81146123fd57600080fd5b50565b60008135905061240f816123e9565b92915050565b60006020828403121561242b5761242a6122bf565b5b600061243984828501612400565b91505092915050565b60008115159050919050565b61245781612442565b82525050565b6000602082019050612472600083018461244e565b92915050565b60006020828403121561248e5761248d6122bf565b5b600061249c8482850161233e565b91505092915050565b600081519050919050565b600082825260208201905092915050565b60005b838110156124df5780820151818401526020810190506124c4565b838111156124ee576000848401525b50505050565b6000601f19601f8301169050919050565b6000612510826124a5565b61251a81856124b0565b935061252a8185602086016124c1565b612533816124f4565b840191505092915050565b600060208201905081810360008301526125588184612505565b905092915050565b600080fd5b600080fd5b7f4e487b7100000000000000000000000000000000000000000000000000000000600052604160045260246000fd5b6125a2826124f4565b810181811067ffffffffffffffff821117156125c1576125c061256a565b5b80604052505050565b60006125d46122b5565b90506125e08282612599565b919050565b600067ffffffffffffffff821115612600576125ff61256a565b5b612609826124f4565b9050602081019050919050565b82818337600083830152505050565b6000612638612633846125e5565b6125ca565b90508281526020810184848401111561265457612653612565565b5b61265f848285612616565b509392505050565b600082601f83011261267c5761267b612560565b5b813561268c848260208601612625565b91505092915050565b600080604083850312156126ac576126ab6122bf565b5b60006126ba8582860161233e565b925050602083013567ffffffffffffffff8111156126db576126da6122c4565b5b6126e785828601612667565b9150509250929050565b60008060408385031215612708576127076122bf565b5b60006127168582860161233e565b92505060206127278582860161233e565b9150509250929050565b600067ffffffffffffffff82111561274c5761274b61256a565b5b602082029050602081019050919050565b600080fd5b600061277561277084612731565b6125ca565b905080838252602082019050602084028301858111156127985761279761275d565b5b835b818110156127c157806127ad888261233e565b84526020840193505060208101905061279a565b5050509392505050565b600082601f8301126127e0576127df612560565b5b81356127f0848260208601612762565b91505092915050565b600067ffffffffffffffff8211156128145761281361256a565b5b61281d826124f4565b9050602081019050919050565b600061283d612838846127f9565b6125ca565b90508281526020810184848401111561285957612858612565565b5b612864848285612616565b509392505050565b600082601f83011261288157612880612560565b5b813561289184826020860161282a565b91505092915050565b600080600080600060a086880312156128b6576128b56122bf565b5b60006128c488828901612312565b95505060206128d588828901612312565b945050604086013567ffffffffffffffff8111156128f6576128f56122c4565b5b612902888289016127cb565b935050606086013567ffffffffffffffff811115612923576129226122c4565b5b61292f888289016127cb565b925050608086013567ffffffffffffffff8111156129505761294f6122c4565b5b61295c8882890161286c565b9150509295509295909350565b600067ffffffffffffffff8211156129845761298361256a565b5b602082029050602081019050919050565b60006129a86129a384612969565b6125ca565b905080838252602082019050602084028301858111156129cb576129ca61275d565b5b835b818110156129f457806129e08882612312565b8452602084019350506020810190506129cd565b5050509392505050565b600082601f830112612a1357612a12612560565b5b8135612a23848260208601612995565b91505092915050565b60008060408385031215612a4357612a426122bf565b5b600083013567ffffffffffffffff811115612a6157612a606122c4565b5b612a6d858286016129fe565b925050602083013567ffffffffffffffff811115612a8e57612a8d6122c4565b5b612a9a858286016127cb565b9150509250929050565b600081519050919050565b600082825260208201905092915050565b6000819050602082019050919050565b612ad981612226565b82525050565b6000612aeb8383612ad0565b60208301905092915050565b6000602082019050919050565b6000612b0f82612aa4565b612b198185612aaf565b9350612b2483612ac0565b8060005b83811015612b55578151612b3c8882612adf565b9750612b4783612af7565b925050600181019050612b28565b5085935050505092915050565b60006020820190508181036000830152612b7c8184612b04565b905092915050565b60008060008060808587031215612b9e57612b9d6122bf565b5b6000612bac8782880161233e565b9450506020612bbd8782880161233e565b9350506040612bce8782880161233e565b925050606085013567ffffffffffffffff811115612bef57612bee6122c4565b5b612bfb87828801612667565b91505092959194509250565b612c1081612442565b8114612c1b57600080fd5b50565b600081359050612c2d81612c07565b92915050565b60008060408385031215612c4a57612c496122bf565b5b6000612c5885828601612312565b9250506020612c6985828601612c1e565b9150509250929050565b612c7c816122e9565b82525050565b6000602082019050612c976000830184612c73565b92915050565b6000612ca8826122c9565b9050919050565b612cb881612c9d565b82525050565b6000602082019050612cd36000830184612caf565b92915050565b600060208284031215612cef57612cee6122bf565b5b6000612cfd84828501612312565b91505092915050565b60008060408385031215612d1d57612d1c6122bf565b5b6000612d2b85828601612312565b9250506020612d3c85828601612312565b9150509250929050565b600080600080600060a08688031215612d6257612d616122bf565b5b6000612d7088828901612312565b9550506020612d8188828901612312565b9450506040612d928882890161233e565b9350506060612da38882890161233e565b925050608086013567ffffffffffffffff811115612dc457612dc36122c4565b5b612dd08882890161286c565b9150509295509295909350565b7f455243313135353a2062616c616e636520717565727920666f7220746865207a60008201527f65726f2061646472657373000000000000000000000000000000000000000000602082015250565b6000612e39602b836124b0565b9150612e4482612ddd565b604082019050919050565b60006020820190508181036000830152612e6881612e2c565b9050919050565b7f4e487b7100000000000000000000000000000000000000000000000000000000600052602260045260246000fd5b60006002820490506001821680612eb657607f821691505b60208210811415612eca57612ec9612e6f565b5b50919050565b7f596f7520617265206e6f7420746865206f776e65720000000000000000000000600082015250565b6000612f066015836124b0565b9150612f1182612ed0565b602082019050919050565b60006020820190508181036000830152612f3581612ef9565b9050919050565b7f4e6f206275796261636b20636170616369747900000000000000000000000000600082015250565b6000612f726013836124b0565b9150612f7d82612f3c565b602082019050919050565b60006020820190508181036000830152612fa181612f65565b9050919050565b6000604082019050612fbd6000830185612c73565b612fca6020830184612393565b9392505050565b600081519050612fe081612327565b92915050565b600060208284031215612ffc57612ffb6122bf565b5b600061300a84828501612fd1565b91505092915050565b7f4e6f7420656e6f7567682073686172657320746f2073656c6c00000000000000600082015250565b60006130496019836124b0565b915061305482613013565b602082019050919050565b600060208201905081810360008301526130788161303c565b9050919050565b600061308a82612226565b915061309583612226565b9250817fffffffffffffffffffffffffffffffffffffffffffffffffffffffffffffffff04831182151516156130ce576130cd612230565b5b828202905092915050565b7f53656c6c657220646f6573206e6f74206861766520656e6f756768206173736560008201527f7473000000000000000000000000000000000000000000000000000000000000602082015250565b60006131356022836124b0565b9150613140826130d9565b604082019050919050565b6000602082019050818103600083015261316481613128565b9050919050565b600082825260208201905092915050565b50565b600061318c60008361316b565b91506131978261317c565b600082019050919050565b600060a0820190506131b76000830187612c73565b6131c46020830186612c73565b6131d16040830185612393565b6131de6060830184612393565b81810360808301526131ef8161317f565b905095945050505050565b7f455243313135353a207472616e736665722063616c6c6572206973206e6f742060008201527f6f776e6572206e6f7220617070726f7665640000000000000000000000000000602082015250565b60006132566032836124b0565b9150613261826131fa565b604082019050919050565b6000602082019050818103600083015261328581613249565b9050919050565b7f455243313135353a206163636f756e747320616e6420696473206c656e67746860008201527f206d69736d617463680000000000000000000000000000000000000000000000602082015250565b60006132e86029836124b0565b91506132f38261328c565b604082019050919050565b60006020820190508181036000830152613317816132db565b9050919050565b7f4e487b7100000000000000000000000000000000000000000000000000000000600052603260045260246000fd5b600061335882612226565b91507fffffffffffffffffffffffffffffffffffffffffffffffffffffffffffffffff82141561338b5761338a612230565b5b600182019050919050565b7f4e6f7420656e6f75676800000000000000000000000000000000000000000000600082015250565b60006133cc600a836124b0565b91506133d782613396565b602082019050919050565b600060208201905081810360008301526133fb816133bf565b9050919050565b7f4e6f206d6f72652073686172657320617661696c61626c650000000000000000600082015250565b60006134386018836124b0565b915061344382613402565b602082019050919050565b600060208201905081810360008301526134678161342b565b9050919050565b6000819050919050565b600061349361348e613489846122c9565b61346e565b6122c9565b9050919050565b60006134a582613478565b9050919050565b60006134b78261349a565b9050919050565b6134c7816134ac565b82525050565b600060a0820190506134e260008301876134be565b6134ef6020830186612c73565b6134fc6040830185612393565b6135096060830184612393565b818103608083015261351a8161317f565b905095945050505050565b7f455243313135353a2063616c6c6572206973206e6f74206f776e6572206e6f7260008201527f20617070726f7665640000000000000000000000000000000000000000000000602082015250565b60006135816029836124b0565b915061358c82613525565b604082019050919050565b600060208201905081810360008301526135b081613574565b9050919050565b7f455243313135353a2069647320616e6420616d6f756e7473206c656e6774682060008201527f6d69736d61746368000000000000000000000000000000000000000000000000602082015250565b60006136136028836124b0565b915061361e826135b7565b604082019050919050565b6000602082019050818103600083015261364281613606565b9050919050565b7f455243313135353a207472616e7366657220746f20746865207a65726f20616460008201527f6472657373000000000000000000000000000000000000000000000000000000602082015250565b60006136a56025836124b0565b91506136b082613649565b604082019050919050565b600060208201905081810360008301526136d481613698565b9050919050565b7f455243313135353a20696e73756666696369656e742062616c616e636520666f60008201527f72207472616e7366657200000000000000000000000000000000000000000000602082015250565b6000613737602a836124b0565b9150613742826136db565b604082019050919050565b600060208201905081810360008301526137668161372a565b9050919050565b600060408201905081810360008301526137878185612b04565b9050818103602083015261379b8184612b04565b90509392505050565b7f455243313135353a206d696e7420746f20746865207a65726f2061646472657360008201527f7300000000000000000000000000000000000000000000000000000000000000602082015250565b60006138006021836124b0565b915061380b826137a4565b604082019050919050565b6000602082019050818103600083015261382f816137f3565b9050919050565b600060408201905061384b6000830185612393565b6138586020830184612393565b9392505050565b7f455243313135353a2073657474696e6720617070726f76616c2073746174757360008201527f20666f722073656c660000000000000000000000000000000000000000000000602082015250565b60006138bb6029836124b0565b91506138c68261385f565b604082019050919050565b600060208201905081810360008301526138ea816138ae565b9050919050565b600081519050919050565b6000613907826138f1565b613911818561316b565b93506139218185602086016124c1565b61392a816124f4565b840191505092915050565b600060a08201905061394a6000830188612c73565b6139576020830187612c73565b81810360408301526139698186612b04565b9050818103606083015261397d8185612b04565b9050818103608083015261399181846138fc565b90509695505050505050565b6000815190506139ac816123e9565b92915050565b6000602082840312156139c8576139c76122bf565b5b60006139d68482850161399d565b91505092915050565b60008160e01c9050919050565b600060033d1115613a0b5760046000803e613a086000516139df565b90505b90565b600060443d1015613a1e57613aa1565b613a266122b5565b60043d036004823e80513d602482011167ffffffffffffffff82111715613a4e575050613aa1565b808201805167ffffffffffffffff811115613a6c5750505050613aa1565b80602083010160043d038501811115613a89575050505050613aa1565b613a9882602001850186612599565b82955050505050505b90565b7f455243313135353a207472616e7366657220746f206e6f6e204552433131353560008201527f526563656976657220696d706c656d656e746572000000000000000000000000602082015250565b6000613b006034836124b0565b9150613b0b82613aa4565b604082019050919050565b60006020820190508181036000830152613b2f81613af3565b9050919050565b7f455243313135353a204552433131353552656365697665722072656a6563746560008201527f6420746f6b656e73000000000000000000000000000000000000000000000000602082015250565b6000613b926028836124b0565b9150613b9d82613b36565b604082019050919050565b60006020820190508181036000830152613bc181613b85565b9050919050565b600060a082019050613bdd6000830188612c73565b613bea6020830187612c73565b613bf76040830186612393565b613c046060830185612393565b8181036080830152613c1681846138fc565b9050969550505050505056fea2646970667358221220cf91de4159f1958dc294d97adef576c505ade126f528e16f2667105dc0614fed64736f6c634300080a0033",
  "linkReferences": {},
  "deployedLinkReferences": {}
}